{
  "_format": "hh-sol-artifact-1",
  "contractName": "GifticonNFT",
  "sourceName": "contracts/GifticonNFT.sol",
  "abi": [
    {
      "inputs": [],
      "stateMutability": "nonpayable",
      "type": "constructor"
    },
    {
      "inputs": [
        {
          "internalType": "address",
          "name": "sender",
          "type": "address"
        },
        {
          "internalType": "uint256",
          "name": "tokenId",
          "type": "uint256"
        },
        {
          "internalType": "address",
          "name": "owner",
          "type": "address"
        }
      ],
      "name": "ERC721IncorrectOwner",
      "type": "error"
    },
    {
      "inputs": [
        {
          "internalType": "address",
          "name": "operator",
          "type": "address"
        },
        {
          "internalType": "uint256",
          "name": "tokenId",
          "type": "uint256"
        }
      ],
      "name": "ERC721InsufficientApproval",
      "type": "error"
    },
    {
      "inputs": [
        {
          "internalType": "address",
          "name": "approver",
          "type": "address"
        }
      ],
      "name": "ERC721InvalidApprover",
      "type": "error"
    },
    {
      "inputs": [
        {
          "internalType": "address",
          "name": "operator",
          "type": "address"
        }
      ],
      "name": "ERC721InvalidOperator",
      "type": "error"
    },
    {
      "inputs": [
        {
          "internalType": "address",
          "name": "owner",
          "type": "address"
        }
      ],
      "name": "ERC721InvalidOwner",
      "type": "error"
    },
    {
      "inputs": [
        {
          "internalType": "address",
          "name": "receiver",
          "type": "address"
        }
      ],
      "name": "ERC721InvalidReceiver",
      "type": "error"
    },
    {
      "inputs": [
        {
          "internalType": "address",
          "name": "sender",
          "type": "address"
        }
      ],
      "name": "ERC721InvalidSender",
      "type": "error"
    },
    {
      "inputs": [
        {
          "internalType": "uint256",
          "name": "tokenId",
          "type": "uint256"
        }
      ],
      "name": "ERC721NonexistentToken",
      "type": "error"
    },
    {
      "inputs": [
        {
          "internalType": "address",
          "name": "owner",
          "type": "address"
        }
      ],
      "name": "OwnableInvalidOwner",
      "type": "error"
    },
    {
      "inputs": [
        {
          "internalType": "address",
          "name": "account",
          "type": "address"
        }
      ],
      "name": "OwnableUnauthorizedAccount",
      "type": "error"
    },
    {
      "anonymous": false,
      "inputs": [
        {
          "indexed": true,
          "internalType": "address",
          "name": "owner",
          "type": "address"
        },
        {
          "indexed": true,
          "internalType": "address",
          "name": "approved",
          "type": "address"
        },
        {
          "indexed": true,
          "internalType": "uint256",
          "name": "tokenId",
          "type": "uint256"
        }
      ],
      "name": "Approval",
      "type": "event"
    },
    {
      "anonymous": false,
      "inputs": [
        {
          "indexed": true,
          "internalType": "address",
          "name": "owner",
          "type": "address"
        },
        {
          "indexed": true,
          "internalType": "address",
          "name": "operator",
          "type": "address"
        },
        {
          "indexed": false,
          "internalType": "bool",
          "name": "approved",
          "type": "bool"
        }
      ],
      "name": "ApprovalForAll",
      "type": "event"
    },
    {
      "anonymous": false,
      "inputs": [
        {
          "indexed": false,
          "internalType": "uint256",
          "name": "_fromTokenId",
          "type": "uint256"
        },
        {
          "indexed": false,
          "internalType": "uint256",
          "name": "_toTokenId",
          "type": "uint256"
        }
      ],
      "name": "BatchMetadataUpdate",
      "type": "event"
    },
    {
      "anonymous": false,
      "inputs": [
        {
          "indexed": true,
          "internalType": "uint256",
          "name": "tokenId",
          "type": "uint256"
        },
        {
          "indexed": true,
          "internalType": "address",
          "name": "reporter",
          "type": "address"
        }
      ],
      "name": "FraudReported",
      "type": "event"
    },
    {
      "anonymous": false,
      "inputs": [
        {
          "indexed": true,
          "internalType": "uint256",
          "name": "tokenId",
          "type": "uint256"
        },
        {
          "indexed": true,
          "internalType": "address",
          "name": "redeemer",
          "type": "address"
        }
      ],
      "name": "GifticonRedeemed",
      "type": "event"
    },
    {
      "anonymous": false,
      "inputs": [
        {
          "indexed": true,
          "internalType": "uint256",
          "name": "tokenId",
          "type": "uint256"
        },
        {
          "indexed": true,
          "internalType": "address",
          "name": "owner",
          "type": "address"
        },
        {
          "indexed": false,
          "internalType": "string",
          "name": "ipfsHash",
          "type": "string"
        }
      ],
      "name": "GifticonRegistered",
      "type": "event"
    },
    {
      "anonymous": false,
      "inputs": [
        {
          "indexed": false,
          "internalType": "uint256",
          "name": "_tokenId",
          "type": "uint256"
        }
      ],
      "name": "MetadataUpdate",
      "type": "event"
    },
    {
      "anonymous": false,
      "inputs": [
        {
          "indexed": true,
          "internalType": "address",
          "name": "previousOwner",
          "type": "address"
        },
        {
          "indexed": true,
          "internalType": "address",
          "name": "newOwner",
          "type": "address"
        }
      ],
      "name": "OwnershipTransferred",
      "type": "event"
    },
    {
      "anonymous": false,
      "inputs": [
        {
          "indexed": true,
          "internalType": "uint256",
          "name": "tokenId",
          "type": "uint256"
        },
        {
          "indexed": false,
          "internalType": "uint256",
          "name": "amountBurned",
          "type": "uint256"
        }
      ],
      "name": "PenaltyApplied",
      "type": "event"
    },
    {
      "anonymous": false,
      "inputs": [
        {
          "indexed": true,
          "internalType": "address",
          "name": "from",
          "type": "address"
        },
        {
          "indexed": true,
          "internalType": "address",
          "name": "to",
          "type": "address"
        },
        {
          "indexed": true,
          "internalType": "uint256",
          "name": "tokenId",
          "type": "uint256"
        }
      ],
      "name": "Transfer",
      "type": "event"
    },
    {
      "inputs": [
        {
          "internalType": "address",
          "name": "to",
          "type": "address"
        },
        {
          "internalType": "uint256",
          "name": "tokenId",
          "type": "uint256"
        }
      ],
      "name": "approve",
      "outputs": [],
      "stateMutability": "nonpayable",
      "type": "function"
    },
    {
      "inputs": [
        {
          "internalType": "address",
          "name": "owner",
          "type": "address"
        }
      ],
      "name": "balanceOf",
      "outputs": [
        {
          "internalType": "uint256",
          "name": "",
          "type": "uint256"
        }
      ],
      "stateMutability": "view",
      "type": "function"
    },
    {
      "inputs": [
        {
          "internalType": "uint256",
          "name": "tokenId",
          "type": "uint256"
        }
      ],
      "name": "getApproved",
      "outputs": [
        {
          "internalType": "address",
          "name": "",
          "type": "address"
        }
      ],
      "stateMutability": "view",
      "type": "function"
    },
    {
      "inputs": [
        {
          "internalType": "uint256",
          "name": "",
          "type": "uint256"
        }
      ],
      "name": "gifticons",
      "outputs": [
        {
          "internalType": "address",
          "name": "originalOwner",
          "type": "address"
        },
        {
          "internalType": "uint256",
          "name": "depositAmount",
          "type": "uint256"
        },
        {
          "internalType": "string",
          "name": "ipfsHash",
          "type": "string"
        },
        {
          "internalType": "enum GifticonNFT.Status",
          "name": "status",
          "type": "uint8"
        },
        {
          "internalType": "uint256",
          "name": "burnTimestamp",
          "type": "uint256"
        }
      ],
      "stateMutability": "view",
      "type": "function"
    },
    {
      "inputs": [
        {
          "internalType": "address",
          "name": "owner",
          "type": "address"
        }
      ],
      "name": "gifticonsWithIdOfOwner",
      "outputs": [
        {
          "components": [
            {
              "internalType": "uint256",
              "name": "tokenId",
              "type": "uint256"
            },
            {
              "components": [
                {
                  "internalType": "address",
                  "name": "originalOwner",
                  "type": "address"
                },
                {
                  "internalType": "uint256",
                  "name": "depositAmount",
                  "type": "uint256"
                },
                {
                  "internalType": "string",
                  "name": "ipfsHash",
                  "type": "string"
                },
                {
                  "internalType": "enum GifticonNFT.Status",
                  "name": "status",
                  "type": "uint8"
                },
                {
                  "internalType": "uint256",
                  "name": "burnTimestamp",
                  "type": "uint256"
                }
              ],
              "internalType": "struct GifticonNFT.Gifticon",
              "name": "gifticon",
              "type": "tuple"
            }
          ],
          "internalType": "struct GifticonNFT.GifticonWithId[]",
          "name": "",
          "type": "tuple[]"
        }
      ],
      "stateMutability": "view",
      "type": "function"
    },
    {
      "inputs": [
        {
          "internalType": "address",
          "name": "owner",
          "type": "address"
        },
        {
          "internalType": "address",
          "name": "operator",
          "type": "address"
        }
      ],
      "name": "isApprovedForAll",
      "outputs": [
        {
          "internalType": "bool",
          "name": "",
          "type": "bool"
        }
      ],
      "stateMutability": "view",
      "type": "function"
    },
    {
      "inputs": [],
      "name": "name",
      "outputs": [
        {
          "internalType": "string",
          "name": "",
          "type": "string"
        }
      ],
      "stateMutability": "view",
      "type": "function"
    },
    {
      "inputs": [],
      "name": "nextTokenId",
      "outputs": [
        {
          "internalType": "uint256",
          "name": "",
          "type": "uint256"
        }
      ],
      "stateMutability": "view",
      "type": "function"
    },
    {
      "inputs": [
        {
          "internalType": "address",
          "name": "",
          "type": "address"
        },
        {
          "internalType": "address",
          "name": "",
          "type": "address"
        },
        {
          "internalType": "uint256",
          "name": "",
          "type": "uint256"
        },
        {
          "internalType": "bytes",
          "name": "",
          "type": "bytes"
        }
      ],
      "name": "onERC721Received",
      "outputs": [
        {
          "internalType": "bytes4",
          "name": "",
          "type": "bytes4"
        }
      ],
      "stateMutability": "pure",
      "type": "function"
    },
    {
      "inputs": [],
      "name": "owner",
      "outputs": [
        {
          "internalType": "address",
          "name": "",
          "type": "address"
        }
      ],
      "stateMutability": "view",
      "type": "function"
    },
    {
      "inputs": [
        {
          "internalType": "uint256",
          "name": "tokenId",
          "type": "uint256"
        }
      ],
      "name": "ownerOf",
      "outputs": [
        {
          "internalType": "address",
          "name": "",
          "type": "address"
        }
      ],
      "stateMutability": "view",
      "type": "function"
    },
    {
      "inputs": [
        {
          "internalType": "uint256",
          "name": "tokenId",
          "type": "uint256"
        }
      ],
      "name": "redeemGifticon",
      "outputs": [],
      "stateMutability": "nonpayable",
      "type": "function"
    },
    {
      "inputs": [
        {
          "internalType": "uint256",
          "name": "tokenId",
          "type": "uint256"
        }
      ],
      "name": "refundDeposit",
      "outputs": [],
      "stateMutability": "nonpayable",
      "type": "function"
    },
    {
      "inputs": [
        {
          "internalType": "string",
          "name": "ipfsHash",
          "type": "string"
        },
        {
          "internalType": "string",
          "name": "tokenURI",
          "type": "string"
        },
        {
          "internalType": "uint256",
          "name": "expiryDate",
          "type": "uint256"
        },
        {
          "internalType": "uint256",
          "name": "depositAmount",
          "type": "uint256"
        }
      ],
      "name": "registerGifticon",
      "outputs": [],
      "stateMutability": "payable",
      "type": "function"
    },
    {
      "inputs": [],
      "name": "renounceOwnership",
      "outputs": [],
      "stateMutability": "nonpayable",
      "type": "function"
    },
    {
      "inputs": [
        {
          "internalType": "uint256",
          "name": "tokenId",
          "type": "uint256"
        }
      ],
      "name": "reportFraud",
      "outputs": [],
      "stateMutability": "nonpayable",
      "type": "function"
    },
    {
      "inputs": [
        {
          "internalType": "address",
          "name": "from",
          "type": "address"
        },
        {
          "internalType": "address",
          "name": "to",
          "type": "address"
        },
        {
          "internalType": "uint256",
          "name": "tokenId",
          "type": "uint256"
        }
      ],
      "name": "safeTransferFrom",
      "outputs": [],
      "stateMutability": "nonpayable",
      "type": "function"
    },
    {
      "inputs": [
        {
          "internalType": "address",
          "name": "from",
          "type": "address"
        },
        {
          "internalType": "address",
          "name": "to",
          "type": "address"
        },
        {
          "internalType": "uint256",
          "name": "tokenId",
          "type": "uint256"
        },
        {
          "internalType": "bytes",
          "name": "data",
          "type": "bytes"
        }
      ],
      "name": "safeTransferFrom",
      "outputs": [],
      "stateMutability": "nonpayable",
      "type": "function"
    },
    {
      "inputs": [
        {
          "internalType": "address",
          "name": "operator",
          "type": "address"
        },
        {
          "internalType": "bool",
          "name": "approved",
          "type": "bool"
        }
      ],
      "name": "setApprovalForAll",
      "outputs": [],
      "stateMutability": "nonpayable",
      "type": "function"
    },
    {
      "inputs": [
        {
          "internalType": "bytes4",
          "name": "interfaceId",
          "type": "bytes4"
        }
      ],
      "name": "supportsInterface",
      "outputs": [
        {
          "internalType": "bool",
          "name": "",
          "type": "bool"
        }
      ],
      "stateMutability": "view",
      "type": "function"
    },
    {
      "inputs": [],
      "name": "symbol",
      "outputs": [
        {
          "internalType": "string",
          "name": "",
          "type": "string"
        }
      ],
      "stateMutability": "view",
      "type": "function"
    },
    {
      "inputs": [
        {
          "internalType": "uint256",
          "name": "tokenId",
          "type": "uint256"
        }
      ],
      "name": "tokenURI",
      "outputs": [
        {
          "internalType": "string",
          "name": "",
          "type": "string"
        }
      ],
      "stateMutability": "view",
      "type": "function"
    },
    {
      "inputs": [
        {
          "internalType": "address",
          "name": "owner",
          "type": "address"
        }
      ],
      "name": "tokensOfOwner",
      "outputs": [
        {
          "internalType": "uint256[]",
          "name": "",
          "type": "uint256[]"
        }
      ],
      "stateMutability": "view",
      "type": "function"
    },
    {
      "inputs": [
        {
          "internalType": "address",
          "name": "from",
          "type": "address"
        },
        {
          "internalType": "address",
          "name": "to",
          "type": "address"
        },
        {
          "internalType": "uint256",
          "name": "tokenId",
          "type": "uint256"
        }
      ],
      "name": "transferFrom",
      "outputs": [],
      "stateMutability": "nonpayable",
      "type": "function"
    },
    {
      "inputs": [
        {
          "internalType": "address",
          "name": "newOwner",
          "type": "address"
        }
      ],
      "name": "transferOwnership",
      "outputs": [],
      "stateMutability": "nonpayable",
      "type": "function"
    },
    {
      "inputs": [],
      "name": "withdraw",
      "outputs": [],
      "stateMutability": "nonpayable",
      "type": "function"
    }
  ],
  "bytecode": "0x608060405234801561001057600080fd5b50336040518060400160405280600b81526020017f4769667469636f6e4e46540000000000000000000000000000000000000000008152506040518060400160405280600381526020017f4746540000000000000000000000000000000000000000000000000000000000815250816000908161008d919061043d565b50806001908161009d919061043d565b505050600073ffffffffffffffffffffffffffffffffffffffff168173ffffffffffffffffffffffffffffffffffffffff16036101125760006040517f1e4fbdf70000000000000000000000000000000000000000000000000000000081526004016101099190610550565b60405180910390fd5b6101218161012760201b60201c565b5061056b565b6000600760009054906101000a900473ffffffffffffffffffffffffffffffffffffffff16905081600760006101000a81548173ffffffffffffffffffffffffffffffffffffffff021916908373ffffffffffffffffffffffffffffffffffffffff1602179055508173ffffffffffffffffffffffffffffffffffffffff168173ffffffffffffffffffffffffffffffffffffffff167f8be0079c531659141344cd1fd0a4f28419497f9722a3daafe3b4186f6b6457e060405160405180910390a35050565b600081519050919050565b7f4e487b7100000000000000000000000000000000000000000000000000000000600052604160045260246000fd5b7f4e487b7100000000000000000000000000000000000000000000000000000000600052602260045260246000fd5b6000600282049050600182168061026e57607f821691505b60208210810361028157610280610227565b5b50919050565b60008190508160005260206000209050919050565b60006020601f8301049050919050565b600082821b905092915050565b6000600883026102e97fffffffffffffffffffffffffffffffffffffffffffffffffffffffffffffffff826102ac565b6102f386836102ac565b95508019841693508086168417925050509392505050565b6000819050919050565b6000819050919050565b600061033a6103356103308461030b565b610315565b61030b565b9050919050565b6000819050919050565b6103548361031f565b61036861036082610341565b8484546102b9565b825550505050565b600090565b61037d610370565b61038881848461034b565b505050565b5b818110156103ac576103a1600082610375565b60018101905061038e565b5050565b601f8211156103f1576103c281610287565b6103cb8461029c565b810160208510156103da578190505b6103ee6103e68561029c565b83018261038d565b50505b505050565b600082821c905092915050565b6000610414600019846008026103f6565b1980831691505092915050565b600061042d8383610403565b9150826002028217905092915050565b610446826101ed565b67ffffffffffffffff81111561045f5761045e6101f8565b5b6104698254610256565b6104748282856103b0565b600060209050601f8311600181146104a75760008415610495578287015190505b61049f8582610421565b865550610507565b601f1984166104b586610287565b60005b828110156104dd578489015182556001820191506020850194506020810190506104b8565b868310156104fa57848901516104f6601f891682610403565b8355505b6001600288020188555050505b505050505050565b600073ffffffffffffffffffffffffffffffffffffffff82169050919050565b600061053a8261050f565b9050919050565b61054a8161052f565b82525050565b60006020820190506105656000830184610541565b92915050565b613e798061057a6000396000f3fe6080604052600436106101815760003560e01c80638462151c116100d1578063c87b56dd1161008a578063e985e9c511610064578063e985e9c514610583578063ea69236c146105c0578063f2fde38b14610601578063f9cca7f31461062a57610181565b8063c87b56dd14610501578063cab3990f1461053e578063e28ce9091461056757610181565b80638462151c146103df5780638da5cb5b1461041c57806395d89b411461044757806397f1764c14610472578063a22cb465146104af578063b88d4fde146104d857610181565b80633ccfd60b1161013e5780636de0de7e116101185780636de0de7e1461033757806370a0823114610360578063715018a61461039d57806375794a3c146103b457610181565b80633ccfd60b146102ba57806342842e0e146102d15780636352211e146102fa57610181565b806301ffc9a71461018657806306fdde03146101c3578063081812fc146101ee578063095ea7b31461022b578063150b7a021461025457806323b872dd14610291575b600080fd5b34801561019257600080fd5b506101ad60048036038101906101a89190612a09565b610653565b6040516101ba9190612a51565b60405180910390f35b3480156101cf57600080fd5b506101d86106b4565b6040516101e59190612afc565b60405180910390f35b3480156101fa57600080fd5b5061021560048036038101906102109190612b54565b610746565b6040516102229190612bc2565b60405180910390f35b34801561023757600080fd5b50610252600480360381019061024d9190612c09565b610762565b005b34801561026057600080fd5b5061027b60048036038101906102769190612cae565b610778565b6040516102889190612d45565b60405180910390f35b34801561029d57600080fd5b506102b860048036038101906102b39190612d60565b61078d565b005b3480156102c657600080fd5b506102cf61088f565b005b3480156102dd57600080fd5b506102f860048036038101906102f39190612d60565b6108e7565b005b34801561030657600080fd5b50610321600480360381019061031c9190612b54565b610907565b60405161032e9190612bc2565b60405180910390f35b34801561034357600080fd5b5061035e60048036038101906103599190612b54565b610919565b005b34801561036c57600080fd5b5061038760048036038101906103829190612db3565b610b45565b6040516103949190612def565b60405180910390f35b3480156103a957600080fd5b506103b2610bff565b005b3480156103c057600080fd5b506103c9610c13565b6040516103d69190612def565b60405180910390f35b3480156103eb57600080fd5b5061040660048036038101906104019190612db3565b610c19565b6040516104139190612ec8565b60405180910390f35b34801561042857600080fd5b50610431610d04565b60405161043e9190612bc2565b60405180910390f35b34801561045357600080fd5b5061045c610d2e565b6040516104699190612afc565b60405180910390f35b34801561047e57600080fd5b5061049960048036038101906104949190612db3565b610dc0565b6040516104a6919061312f565b60405180910390f35b3480156104bb57600080fd5b506104d660048036038101906104d1919061317d565b61101d565b005b3480156104e457600080fd5b506104ff60048036038101906104fa91906132ed565b611033565b005b34801561050d57600080fd5b5061052860048036038101906105239190612b54565b611058565b6040516105359190612afc565b60405180910390f35b34801561054a57600080fd5b5061056560048036038101906105609190612b54565b61116b565b005b610581600480360381019061057c9190613411565b611310565b005b34801561058f57600080fd5b506105aa60048036038101906105a591906134b0565b6114de565b6040516105b79190612a51565b60405180910390f35b3480156105cc57600080fd5b506105e760048036038101906105e29190612b54565b611572565b6040516105f89594939291906134ff565b60405180910390f35b34801561060d57600080fd5b5061062860048036038101906106239190612db3565b61165d565b005b34801561063657600080fd5b50610651600480360381019061064c9190612b54565b6116e3565b005b6000634906490660e01b7bffffffffffffffffffffffffffffffffffffffffffffffffffffffff1916827bffffffffffffffffffffffffffffffffffffffffffffffffffffffff191614806106ad57506106ac82611871565b5b9050919050565b6060600080546106c390613588565b80601f01602080910402602001604051908101604052809291908181526020018280546106ef90613588565b801561073c5780601f106107115761010080835404028352916020019161073c565b820191906000526020600020905b81548152906001019060200180831161071f57829003601f168201915b5050505050905090565b600061075182611953565b5061075b826119db565b9050919050565b610774828261076f611a18565b611a20565b5050565b600063150b7a0260e01b905095945050505050565b600073ffffffffffffffffffffffffffffffffffffffff168273ffffffffffffffffffffffffffffffffffffffff16036107ff5760006040517f64a0ae920000000000000000000000000000000000000000000000000000000081526004016107f69190612bc2565b60405180910390fd5b6000610813838361080e611a18565b611a32565b90508373ffffffffffffffffffffffffffffffffffffffff168173ffffffffffffffffffffffffffffffffffffffff1614610889578382826040517f64283d7b000000000000000000000000000000000000000000000000000000008152600401610880939291906135b9565b60405180910390fd5b50505050565b610897611c4c565b61089f610d04565b73ffffffffffffffffffffffffffffffffffffffff166108fc479081150290604051600060405180830381858888f193505050501580156108e4573d6000803e3d6000fd5b50565b61090283838360405180602001604052806000815250611033565b505050565b600061091282611953565b9050919050565b60006009600083815260200190815260200160002090503373ffffffffffffffffffffffffffffffffffffffff168160000160009054906101000a900473ffffffffffffffffffffffffffffffffffffffff1673ffffffffffffffffffffffffffffffffffffffff16146109c2576040517f08c379a00000000000000000000000000000000000000000000000000000000081526004016109b99061363c565b60405180910390fd5b3373ffffffffffffffffffffffffffffffffffffffff166109e283610907565b73ffffffffffffffffffffffffffffffffffffffff1614610a38576040517f08c379a0000000000000000000000000000000000000000000000000000000008152600401610a2f906136a8565b60405180910390fd5b60006002811115610a4c57610a4b612f6f565b5b8160030160009054906101000a900460ff166002811115610a7057610a6f612f6f565b5b14610ab0576040517f08c379a0000000000000000000000000000000000000000000000000000000008152600401610aa790613714565b60405180910390fd5b6000816001015490506000826001018190555060028260030160006101000a81548160ff02191690836002811115610aeb57610aea612f6f565b5b0217905550610af983611cd3565b3373ffffffffffffffffffffffffffffffffffffffff166108fc829081150290604051600060405180830381858888f19350505050158015610b3f573d6000803e3d6000fd5b50505050565b60008073ffffffffffffffffffffffffffffffffffffffff168273ffffffffffffffffffffffffffffffffffffffff1603610bb85760006040517f89c62b64000000000000000000000000000000000000000000000000000000008152600401610baf9190612bc2565b60405180910390fd5b600360008373ffffffffffffffffffffffffffffffffffffffff1673ffffffffffffffffffffffffffffffffffffffff168152602001908152602001600020549050919050565b610c07611c4c565b610c116000611d59565b565b60085481565b60606000610c2683610b45565b905060008167ffffffffffffffff811115610c4457610c436131c2565b5b604051908082528060200260200182016040528015610c725781602001602082028036833780820191505090505b5090506000805b600854811015610cf8578573ffffffffffffffffffffffffffffffffffffffff16610ca382610907565b73ffffffffffffffffffffffffffffffffffffffff1603610ceb5780838380610ccb90613763565b945081518110610cde57610cdd6137ab565b5b6020026020010181815250505b8080600101915050610c79565b50819350505050919050565b6000600760009054906101000a900473ffffffffffffffffffffffffffffffffffffffff16905090565b606060018054610d3d90613588565b80601f0160208091040260200160405190810160405280929190818152602001828054610d6990613588565b8015610db65780601f10610d8b57610100808354040283529160200191610db6565b820191906000526020600020905b815481529060010190602001808311610d9957829003601f168201915b5050505050905090565b60606000610dcd83610b45565b905060008167ffffffffffffffff811115610deb57610dea6131c2565b5b604051908082528060200260200182016040528015610e2457816020015b610e11612926565b815260200190600190039081610e095790505b5090506000805b600854811015611011578573ffffffffffffffffffffffffffffffffffffffff16610e5582610907565b73ffffffffffffffffffffffffffffffffffffffff1603611004576040518060400160405280828152602001600960008481526020019081526020016000206040518060a00160405290816000820160009054906101000a900473ffffffffffffffffffffffffffffffffffffffff1673ffffffffffffffffffffffffffffffffffffffff1673ffffffffffffffffffffffffffffffffffffffff16815260200160018201548152602001600282018054610f0f90613588565b80601f0160208091040260200160405190810160405280929190818152602001828054610f3b90613588565b8015610f885780601f10610f5d57610100808354040283529160200191610f88565b820191906000526020600020905b815481529060010190602001808311610f6b57829003601f168201915b505050505081526020016003820160009054906101000a900460ff166002811115610fb657610fb5612f6f565b5b6002811115610fc857610fc7612f6f565b5b8152602001600482015481525050815250838380610fe590613763565b945081518110610ff857610ff76137ab565b5b60200260200101819052505b8080600101915050610e2b565b50819350505050919050565b61102f611028611a18565b8383611e1f565b5050565b61103e84848461078d565b611052611049611a18565b85858585611f8e565b50505050565b606061106382611953565b50600060066000848152602001908152602001600020805461108490613588565b80601f01602080910402602001604051908101604052809291908181526020018280546110b090613588565b80156110fd5780601f106110d2576101008083540402835291602001916110fd565b820191906000526020600020905b8154815290600101906020018083116110e057829003601f168201915b50505050509050600061110e61213f565b90506000815103611123578192505050611166565b600082511115611158578082604051602001611140929190613816565b60405160208183030381529060405292505050611166565b61116184612156565b925050505b919050565b60006009600083815260200190815260200160002090506001600281111561119657611195612f6f565b5b8160030160009054906101000a900460ff1660028111156111ba576111b9612f6f565b5b146111fa576040517f08c379a00000000000000000000000000000000000000000000000000000000081526004016111f190613886565b60405180910390fd5b62015180816004015461120d91906138a6565b42111561124f576040517f08c379a000000000000000000000000000000000000000000000000000000000815260040161124690613926565b60405180910390fd5b60028160030160006101000a81548160ff0219169083600281111561127757611276612f6f565b5b0217905550600081600101549050600082600101819055503373ffffffffffffffffffffffffffffffffffffffff16837f519ba9a00e84000cf73eb4dead0e2e04a983f1e23fdaf9cdefe13cff4883c55160405160405180910390a3827f8cde5670f6ee74478a4d7a5073596874894ea932ab8cc9c2ee3e0ae61c42e4ca826040516113039190612def565b60405180910390a2505050565b803414611352576040517f08c379a000000000000000000000000000000000000000000000000000000000815260040161134990613992565b60405180910390fd5b60006008600081548092919061136790613763565b91905055905061137733826121bf565b61138181856122b8565b6040518060a001604052803373ffffffffffffffffffffffffffffffffffffffff168152602001838152602001868152602001600060028111156113c8576113c7612f6f565b5b8152602001848152506009600083815260200190815260200160002060008201518160000160006101000a81548173ffffffffffffffffffffffffffffffffffffffff021916908373ffffffffffffffffffffffffffffffffffffffff16021790555060208201518160010155604082015181600201908161144a9190613b5e565b5060608201518160030160006101000a81548160ff0219169083600281111561147657611475612f6f565b5b0217905550608082015181600401559050503373ffffffffffffffffffffffffffffffffffffffff16817fb09579c55c46ad8519994dbc8b3d3c7ff0dd4d5a735f46c2eba49e828da5c21a876040516114cf9190612afc565b60405180910390a35050505050565b6000600560008473ffffffffffffffffffffffffffffffffffffffff1673ffffffffffffffffffffffffffffffffffffffff16815260200190815260200160002060008373ffffffffffffffffffffffffffffffffffffffff1673ffffffffffffffffffffffffffffffffffffffff16815260200190815260200160002060009054906101000a900460ff16905092915050565b60096020528060005260406000206000915090508060000160009054906101000a900473ffffffffffffffffffffffffffffffffffffffff16908060010154908060020180546115c190613588565b80601f01602080910402602001604051908101604052809291908181526020018280546115ed90613588565b801561163a5780601f1061160f5761010080835404028352916020019161163a565b820191906000526020600020905b81548152906001019060200180831161161d57829003601f168201915b5050505050908060030160009054906101000a900460ff16908060040154905085565b611665611c4c565b600073ffffffffffffffffffffffffffffffffffffffff168173ffffffffffffffffffffffffffffffffffffffff16036116d75760006040517f1e4fbdf70000000000000000000000000000000000000000000000000000000081526004016116ce9190612bc2565b60405180910390fd5b6116e081611d59565b50565b3373ffffffffffffffffffffffffffffffffffffffff1661170382610907565b73ffffffffffffffffffffffffffffffffffffffff1614611759576040517f08c379a000000000000000000000000000000000000000000000000000000000815260040161175090613c7c565b60405180910390fd5b60006009600083815260200190815260200160002090506000600281111561178457611783612f6f565b5b8160030160009054906101000a900460ff1660028111156117a8576117a7612f6f565b5b146117e8576040517f08c379a00000000000000000000000000000000000000000000000000000000081526004016117df90613ce8565b60405180910390fd5b60018160030160006101000a81548160ff021916908360028111156118105761180f612f6f565b5b02179055504281600401819055506118293330846108e7565b3373ffffffffffffffffffffffffffffffffffffffff16827f5572c73fa9d731a77b8f543bcb1446b93f25682511bc350d4fd0cbbf2ac2b8f960405160405180910390a35050565b60007f80ac58cd000000000000000000000000000000000000000000000000000000007bffffffffffffffffffffffffffffffffffffffffffffffffffffffff1916827bffffffffffffffffffffffffffffffffffffffffffffffffffffffff1916148061193c57507f5b5e139f000000000000000000000000000000000000000000000000000000007bffffffffffffffffffffffffffffffffffffffffffffffffffffffff1916827bffffffffffffffffffffffffffffffffffffffffffffffffffffffff1916145b8061194c575061194b82612314565b5b9050919050565b60008061195f8361237e565b9050600073ffffffffffffffffffffffffffffffffffffffff168173ffffffffffffffffffffffffffffffffffffffff16036119d257826040517f7e2732890000000000000000000000000000000000000000000000000000000081526004016119c99190612def565b60405180910390fd5b80915050919050565b60006004600083815260200190815260200160002060009054906101000a900473ffffffffffffffffffffffffffffffffffffffff169050919050565b600033905090565b611a2d83838360016123bb565b505050565b600080611a3e8461237e565b9050600073ffffffffffffffffffffffffffffffffffffffff168373ffffffffffffffffffffffffffffffffffffffff1614611a8057611a7f818486612580565b5b600073ffffffffffffffffffffffffffffffffffffffff168173ffffffffffffffffffffffffffffffffffffffff1614611b1157611ac26000856000806123bb565b6001600360008373ffffffffffffffffffffffffffffffffffffffff1673ffffffffffffffffffffffffffffffffffffffff168152602001908152602001600020600082825403925050819055505b600073ffffffffffffffffffffffffffffffffffffffff168573ffffffffffffffffffffffffffffffffffffffff1614611b94576001600360008773ffffffffffffffffffffffffffffffffffffffff1673ffffffffffffffffffffffffffffffffffffffff168152602001908152602001600020600082825401925050819055505b846002600086815260200190815260200160002060006101000a81548173ffffffffffffffffffffffffffffffffffffffff021916908373ffffffffffffffffffffffffffffffffffffffff160217905550838573ffffffffffffffffffffffffffffffffffffffff168273ffffffffffffffffffffffffffffffffffffffff167fddf252ad1be2c89b69c2b068fc378daa952ba7f163c4a11628f55a4df523b3ef60405160405180910390a4809150509392505050565b611c54611a18565b73ffffffffffffffffffffffffffffffffffffffff16611c72610d04565b73ffffffffffffffffffffffffffffffffffffffff1614611cd157611c95611a18565b6040517f118cdaa7000000000000000000000000000000000000000000000000000000008152600401611cc89190612bc2565b60405180910390fd5b565b6000611ce26000836000611a32565b9050600073ffffffffffffffffffffffffffffffffffffffff168173ffffffffffffffffffffffffffffffffffffffff1603611d5557816040517f7e273289000000000000000000000000000000000000000000000000000000008152600401611d4c9190612def565b60405180910390fd5b5050565b6000600760009054906101000a900473ffffffffffffffffffffffffffffffffffffffff16905081600760006101000a81548173ffffffffffffffffffffffffffffffffffffffff021916908373ffffffffffffffffffffffffffffffffffffffff1602179055508173ffffffffffffffffffffffffffffffffffffffff168173ffffffffffffffffffffffffffffffffffffffff167f8be0079c531659141344cd1fd0a4f28419497f9722a3daafe3b4186f6b6457e060405160405180910390a35050565b600073ffffffffffffffffffffffffffffffffffffffff168273ffffffffffffffffffffffffffffffffffffffff1603611e9057816040517f5b08ba18000000000000000000000000000000000000000000000000000000008152600401611e879190612bc2565b60405180910390fd5b80600560008573ffffffffffffffffffffffffffffffffffffffff1673ffffffffffffffffffffffffffffffffffffffff16815260200190815260200160002060008473ffffffffffffffffffffffffffffffffffffffff1673ffffffffffffffffffffffffffffffffffffffff16815260200190815260200160002060006101000a81548160ff0219169083151502179055508173ffffffffffffffffffffffffffffffffffffffff168373ffffffffffffffffffffffffffffffffffffffff167f17307eab39ab6107e8899845ad3d59bd9653f200f220920489ca2b5937696c3183604051611f819190612a51565b60405180910390a3505050565b60008373ffffffffffffffffffffffffffffffffffffffff163b1115612138578273ffffffffffffffffffffffffffffffffffffffff1663150b7a02868685856040518563ffffffff1660e01b8152600401611fed9493929190613d5d565b6020604051808303816000875af192505050801561202957506040513d601f19601f820116820180604052508101906120269190613dbe565b60015b6120ad573d8060008114612059576040519150601f19603f3d011682016040523d82523d6000602084013e61205e565b606091505b5060008151036120a557836040517f64a0ae9200000000000000000000000000000000000000000000000000000000815260040161209c9190612bc2565b60405180910390fd5b805181602001fd5b63150b7a0260e01b7bffffffffffffffffffffffffffffffffffffffffffffffffffffffff1916817bffffffffffffffffffffffffffffffffffffffffffffffffffffffff19161461213657836040517f64a0ae9200000000000000000000000000000000000000000000000000000000815260040161212d9190612bc2565b60405180910390fd5b505b5050505050565b606060405180602001604052806000815250905090565b606061216182611953565b50600061216c61213f565b9050600081511161218c57604051806020016040528060008152506121b7565b8061219684612644565b6040516020016121a7929190613816565b6040516020818303038152906040525b915050919050565b600073ffffffffffffffffffffffffffffffffffffffff168273ffffffffffffffffffffffffffffffffffffffff16036122315760006040517f64a0ae920000000000000000000000000000000000000000000000000000000081526004016122289190612bc2565b60405180910390fd5b600061223f83836000611a32565b9050600073ffffffffffffffffffffffffffffffffffffffff168173ffffffffffffffffffffffffffffffffffffffff16146122b35760006040517f73c6ac6e0000000000000000000000000000000000000000000000000000000081526004016122aa9190612bc2565b60405180910390fd5b505050565b806006600084815260200190815260200160002090816122d89190613b5e565b507ff8e1a15aba9398e019f0b49df1a4fde98ee17ae345cb5f6b5e2c27f5033e8ce7826040516123089190612def565b60405180910390a15050565b60007f01ffc9a7000000000000000000000000000000000000000000000000000000007bffffffffffffffffffffffffffffffffffffffffffffffffffffffff1916827bffffffffffffffffffffffffffffffffffffffffffffffffffffffff1916149050919050565b60006002600083815260200190815260200160002060009054906101000a900473ffffffffffffffffffffffffffffffffffffffff169050919050565b80806123f45750600073ffffffffffffffffffffffffffffffffffffffff168273ffffffffffffffffffffffffffffffffffffffff1614155b1561252857600061240484611953565b9050600073ffffffffffffffffffffffffffffffffffffffff168373ffffffffffffffffffffffffffffffffffffffff161415801561246f57508273ffffffffffffffffffffffffffffffffffffffff168173ffffffffffffffffffffffffffffffffffffffff1614155b8015612482575061248081846114de565b155b156124c457826040517fa9fbf51f0000000000000000000000000000000000000000000000000000000081526004016124bb9190612bc2565b60405180910390fd5b811561252657838573ffffffffffffffffffffffffffffffffffffffff168273ffffffffffffffffffffffffffffffffffffffff167f8c5be1e5ebec7d5bd14f71427d1e84f3dd0314c0f7b2291e5b200ac8c7c3b92560405160405180910390a45b505b836004600085815260200190815260200160002060006101000a81548173ffffffffffffffffffffffffffffffffffffffff021916908373ffffffffffffffffffffffffffffffffffffffff16021790555050505050565b61258b838383612712565b61263f57600073ffffffffffffffffffffffffffffffffffffffff168373ffffffffffffffffffffffffffffffffffffffff160361260057806040517f7e2732890000000000000000000000000000000000000000000000000000000081526004016125f79190612def565b60405180910390fd5b81816040517f177e802f000000000000000000000000000000000000000000000000000000008152600401612636929190613deb565b60405180910390fd5b505050565b606060006001612653846127d3565b01905060008167ffffffffffffffff811115612672576126716131c2565b5b6040519080825280601f01601f1916602001820160405280156126a45781602001600182028036833780820191505090505b509050600082602001820190505b600115612707578080600190039150507f3031323334353637383961626364656600000000000000000000000000000000600a86061a8153600a85816126fb576126fa613e14565b5b049450600085036126b2575b819350505050919050565b60008073ffffffffffffffffffffffffffffffffffffffff168373ffffffffffffffffffffffffffffffffffffffff16141580156127ca57508273ffffffffffffffffffffffffffffffffffffffff168473ffffffffffffffffffffffffffffffffffffffff16148061278b575061278a84846114de565b5b806127c957508273ffffffffffffffffffffffffffffffffffffffff166127b1836119db565b73ffffffffffffffffffffffffffffffffffffffff16145b5b90509392505050565b600080600090507a184f03e93ff9f4daa797ed6e38ed64bf6a1f0100000000000000008310612831577a184f03e93ff9f4daa797ed6e38ed64bf6a1f010000000000000000838161282757612826613e14565b5b0492506040810190505b6d04ee2d6d415b85acef8100000000831061286e576d04ee2d6d415b85acef8100000000838161286457612863613e14565b5b0492506020810190505b662386f26fc10000831061289d57662386f26fc10000838161289357612892613e14565b5b0492506010810190505b6305f5e10083106128c6576305f5e10083816128bc576128bb613e14565b5b0492506008810190505b61271083106128eb5761271083816128e1576128e0613e14565b5b0492506004810190505b6064831061290e576064838161290457612903613e14565b5b0492506002810190505b600a831061291d576001810190505b80915050919050565b604051806040016040528060008152602001612940612946565b81525090565b6040518060a00160405280600073ffffffffffffffffffffffffffffffffffffffff1681526020016000815260200160608152602001600060028111156129905761298f612f6f565b5b8152602001600081525090565b6000604051905090565b600080fd5b600080fd5b60007fffffffff0000000000000000000000000000000000000000000000000000000082169050919050565b6129e6816129b1565b81146129f157600080fd5b50565b600081359050612a03816129dd565b92915050565b600060208284031215612a1f57612a1e6129a7565b5b6000612a2d848285016129f4565b91505092915050565b60008115159050919050565b612a4b81612a36565b82525050565b6000602082019050612a666000830184612a42565b92915050565b600081519050919050565b600082825260208201905092915050565b60005b83811015612aa6578082015181840152602081019050612a8b565b60008484015250505050565b6000601f19601f8301169050919050565b6000612ace82612a6c565b612ad88185612a77565b9350612ae8818560208601612a88565b612af181612ab2565b840191505092915050565b60006020820190508181036000830152612b168184612ac3565b905092915050565b6000819050919050565b612b3181612b1e565b8114612b3c57600080fd5b50565b600081359050612b4e81612b28565b92915050565b600060208284031215612b6a57612b696129a7565b5b6000612b7884828501612b3f565b91505092915050565b600073ffffffffffffffffffffffffffffffffffffffff82169050919050565b6000612bac82612b81565b9050919050565b612bbc81612ba1565b82525050565b6000602082019050612bd76000830184612bb3565b92915050565b612be681612ba1565b8114612bf157600080fd5b50565b600081359050612c0381612bdd565b92915050565b60008060408385031215612c2057612c1f6129a7565b5b6000612c2e85828601612bf4565b9250506020612c3f85828601612b3f565b9150509250929050565b600080fd5b600080fd5b600080fd5b60008083601f840112612c6e57612c6d612c49565b5b8235905067ffffffffffffffff811115612c8b57612c8a612c4e565b5b602083019150836001820283011115612ca757612ca6612c53565b5b9250929050565b600080600080600060808688031215612cca57612cc96129a7565b5b6000612cd888828901612bf4565b9550506020612ce988828901612bf4565b9450506040612cfa88828901612b3f565b935050606086013567ffffffffffffffff811115612d1b57612d1a6129ac565b5b612d2788828901612c58565b92509250509295509295909350565b612d3f816129b1565b82525050565b6000602082019050612d5a6000830184612d36565b92915050565b600080600060608486031215612d7957612d786129a7565b5b6000612d8786828701612bf4565b9350506020612d9886828701612bf4565b9250506040612da986828701612b3f565b9150509250925092565b600060208284031215612dc957612dc86129a7565b5b6000612dd784828501612bf4565b91505092915050565b612de981612b1e565b82525050565b6000602082019050612e046000830184612de0565b92915050565b600081519050919050565b600082825260208201905092915050565b6000819050602082019050919050565b612e3f81612b1e565b82525050565b6000612e518383612e36565b60208301905092915050565b6000602082019050919050565b6000612e7582612e0a565b612e7f8185612e15565b9350612e8a83612e26565b8060005b83811015612ebb578151612ea28882612e45565b9750612ead83612e5d565b925050600181019050612e8e565b5085935050505092915050565b60006020820190508181036000830152612ee28184612e6a565b905092915050565b600081519050919050565b600082825260208201905092915050565b6000819050602082019050919050565b612f1f81612ba1565b82525050565b600082825260208201905092915050565b6000612f4182612a6c565b612f4b8185612f25565b9350612f5b818560208601612a88565b612f6481612ab2565b840191505092915050565b7f4e487b7100000000000000000000000000000000000000000000000000000000600052602160045260246000fd5b60038110612faf57612fae612f6f565b5b50565b6000819050612fc082612f9e565b919050565b6000612fd082612fb2565b9050919050565b612fe081612fc5565b82525050565b600060a083016000830151612ffe6000860182612f16565b5060208301516130116020860182612e36565b50604083015184820360408601526130298282612f36565b915050606083015161303e6060860182612fd7565b5060808301516130516080860182612e36565b508091505092915050565b60006040830160008301516130746000860182612e36565b506020830151848203602086015261308c8282612fe6565b9150508091505092915050565b60006130a5838361305c565b905092915050565b6000602082019050919050565b60006130c582612eea565b6130cf8185612ef5565b9350836020820285016130e185612f06565b8060005b8581101561311d57848403895281516130fe8582613099565b9450613109836130ad565b925060208a019950506001810190506130e5565b50829750879550505050505092915050565b6000602082019050818103600083015261314981846130ba565b905092915050565b61315a81612a36565b811461316557600080fd5b50565b60008135905061317781613151565b92915050565b60008060408385031215613194576131936129a7565b5b60006131a285828601612bf4565b92505060206131b385828601613168565b9150509250929050565b600080fd5b7f4e487b7100000000000000000000000000000000000000000000000000000000600052604160045260246000fd5b6131fa82612ab2565b810181811067ffffffffffffffff82111715613219576132186131c2565b5b80604052505050565b600061322c61299d565b905061323882826131f1565b919050565b600067ffffffffffffffff821115613258576132576131c2565b5b61326182612ab2565b9050602081019050919050565b82818337600083830152505050565b600061329061328b8461323d565b613222565b9050828152602081018484840111156132ac576132ab6131bd565b5b6132b784828561326e565b509392505050565b600082601f8301126132d4576132d3612c49565b5b81356132e484826020860161327d565b91505092915050565b60008060008060808587031215613307576133066129a7565b5b600061331587828801612bf4565b945050602061332687828801612bf4565b935050604061333787828801612b3f565b925050606085013567ffffffffffffffff811115613358576133576129ac565b5b613364878288016132bf565b91505092959194509250565b600067ffffffffffffffff82111561338b5761338a6131c2565b5b61339482612ab2565b9050602081019050919050565b60006133b46133af84613370565b613222565b9050828152602081018484840111156133d0576133cf6131bd565b5b6133db84828561326e565b509392505050565b600082601f8301126133f8576133f7612c49565b5b81356134088482602086016133a1565b91505092915050565b6000806000806080858703121561342b5761342a6129a7565b5b600085013567ffffffffffffffff811115613449576134486129ac565b5b613455878288016133e3565b945050602085013567ffffffffffffffff811115613476576134756129ac565b5b613482878288016133e3565b935050604061349387828801612b3f565b92505060606134a487828801612b3f565b91505092959194509250565b600080604083850312156134c7576134c66129a7565b5b60006134d585828601612bf4565b92505060206134e685828601612bf4565b9150509250929050565b6134f981612fc5565b82525050565b600060a0820190506135146000830188612bb3565b6135216020830187612de0565b81810360408301526135338186612ac3565b905061354260608301856134f0565b61354f6080830184612de0565b9695505050505050565b7f4e487b7100000000000000000000000000000000000000000000000000000000600052602260045260246000fd5b600060028204905060018216806135a057607f821691505b6020821081036135b3576135b2613559565b5b50919050565b60006060820190506135ce6000830186612bb3565b6135db6020830185612de0565b6135e86040830184612bb3565b949350505050565b7f4e6f74206f726967696e616c206f776e65720000000000000000000000000000600082015250565b6000613626601283612a77565b9150613631826135f0565b602082019050919050565b6000602082019050818103600083015261365581613619565b9050919050565b7f596f75206d757374206f776e20746865204e4654000000000000000000000000600082015250565b6000613692601483612a77565b915061369d8261365c565b602082019050919050565b600060208201905081810360008301526136c181613685565b9050919050565b7f4e6f7420726566756e6461626c65000000000000000000000000000000000000600082015250565b60006136fe600e83612a77565b9150613709826136c8565b602082019050919050565b6000602082019050818103600083015261372d816136f1565b9050919050565b7f4e487b7100000000000000000000000000000000000000000000000000000000600052601160045260246000fd5b600061376e82612b1e565b91507fffffffffffffffffffffffffffffffffffffffffffffffffffffffffffffffff82036137a05761379f613734565b5b600182019050919050565b7f4e487b7100000000000000000000000000000000000000000000000000000000600052603260045260246000fd5b600081905092915050565b60006137f082612a6c565b6137fa81856137da565b935061380a818560208601612a88565b80840191505092915050565b600061382282856137e5565b915061382e82846137e5565b91508190509392505050565b7f4e6f742072656465656d61626c65000000000000000000000000000000000000600082015250565b6000613870600e83612a77565b915061387b8261383a565b602082019050919050565b6000602082019050818103600083015261389f81613863565b9050919050565b60006138b182612b1e565b91506138bc83612b1e565b92508282019050808211156138d4576138d3613734565b5b92915050565b7f5265706f72742077696e646f7720636c6f736564000000000000000000000000600082015250565b6000613910601483612a77565b915061391b826138da565b602082019050919050565b6000602082019050818103600083015261393f81613903565b9050919050565b7f496e636f7272656374206465706f736974000000000000000000000000000000600082015250565b600061397c601183612a77565b915061398782613946565b602082019050919050565b600060208201905081810360008301526139ab8161396f565b9050919050565b60008190508160005260206000209050919050565b60006020601f8301049050919050565b600082821b905092915050565b600060088302613a147fffffffffffffffffffffffffffffffffffffffffffffffffffffffffffffffff826139d7565b613a1e86836139d7565b95508019841693508086168417925050509392505050565b6000819050919050565b6000613a5b613a56613a5184612b1e565b613a36565b612b1e565b9050919050565b6000819050919050565b613a7583613a40565b613a89613a8182613a62565b8484546139e4565b825550505050565b600090565b613a9e613a91565b613aa9818484613a6c565b505050565b5b81811015613acd57613ac2600082613a96565b600181019050613aaf565b5050565b601f821115613b1257613ae3816139b2565b613aec846139c7565b81016020851015613afb578190505b613b0f613b07856139c7565b830182613aae565b50505b505050565b600082821c905092915050565b6000613b3560001984600802613b17565b1980831691505092915050565b6000613b4e8383613b24565b9150826002028217905092915050565b613b6782612a6c565b67ffffffffffffffff811115613b8057613b7f6131c2565b5b613b8a8254613588565b613b95828285613ad1565b600060209050601f831160018114613bc85760008415613bb6578287015190505b613bc08582613b42565b865550613c28565b601f198416613bd6866139b2565b60005b82811015613bfe57848901518255600182019150602085019450602081019050613bd9565b86831015613c1b5784890151613c17601f891682613b24565b8355505b6001600288020188555050505b505050505050565b7f4e6f7420746865206f776e657200000000000000000000000000000000000000600082015250565b6000613c66600d83612a77565b9150613c7182613c30565b602082019050919050565b60006020820190508181036000830152613c9581613c59565b9050919050565b7f416c72656164792072656465656d6564206f722070656e616c697a6564000000600082015250565b6000613cd2601d83612a77565b9150613cdd82613c9c565b602082019050919050565b60006020820190508181036000830152613d0181613cc5565b9050919050565b600081519050919050565b600082825260208201905092915050565b6000613d2f82613d08565b613d398185613d13565b9350613d49818560208601612a88565b613d5281612ab2565b840191505092915050565b6000608082019050613d726000830187612bb3565b613d7f6020830186612bb3565b613d8c6040830185612de0565b8181036060830152613d9e8184613d24565b905095945050505050565b600081519050613db8816129dd565b92915050565b600060208284031215613dd457613dd36129a7565b5b6000613de284828501613da9565b91505092915050565b6000604082019050613e006000830185612bb3565b613e0d6020830184612de0565b9392505050565b7f4e487b7100000000000000000000000000000000000000000000000000000000600052601260045260246000fdfea26469706673582212204e8bae28357e3d6850ceef4d47d0413ebf5048e6340e03cfb0e6194260d98aa564736f6c634300081c0033",
  "linkReferences": {},
  "deployedLinkReferences": {}
}