{
  "_format": "hh-sol-artifact-1",
  "contractName": "GifticonNFT",
  "sourceName": "contracts/GifticonNFT.sol",
  "abi": [
    {
      "inputs": [],
      "stateMutability": "nonpayable",
      "type": "constructor"
    },
    {
      "inputs": [
        {
          "internalType": "address",
          "name": "sender",
          "type": "address"
        },
        {
          "internalType": "uint256",
          "name": "tokenId",
          "type": "uint256"
        },
        {
          "internalType": "address",
          "name": "owner",
          "type": "address"
        }
      ],
      "name": "ERC721IncorrectOwner",
      "type": "error"
    },
    {
      "inputs": [
        {
          "internalType": "address",
          "name": "operator",
          "type": "address"
        },
        {
          "internalType": "uint256",
          "name": "tokenId",
          "type": "uint256"
        }
      ],
      "name": "ERC721InsufficientApproval",
      "type": "error"
    },
    {
      "inputs": [
        {
          "internalType": "address",
          "name": "approver",
          "type": "address"
        }
      ],
      "name": "ERC721InvalidApprover",
      "type": "error"
    },
    {
      "inputs": [
        {
          "internalType": "address",
          "name": "operator",
          "type": "address"
        }
      ],
      "name": "ERC721InvalidOperator",
      "type": "error"
    },
    {
      "inputs": [
        {
          "internalType": "address",
          "name": "owner",
          "type": "address"
        }
      ],
      "name": "ERC721InvalidOwner",
      "type": "error"
    },
    {
      "inputs": [
        {
          "internalType": "address",
          "name": "receiver",
          "type": "address"
        }
      ],
      "name": "ERC721InvalidReceiver",
      "type": "error"
    },
    {
      "inputs": [
        {
          "internalType": "address",
          "name": "sender",
          "type": "address"
        }
      ],
      "name": "ERC721InvalidSender",
      "type": "error"
    },
    {
      "inputs": [
        {
          "internalType": "uint256",
          "name": "tokenId",
          "type": "uint256"
        }
      ],
      "name": "ERC721NonexistentToken",
      "type": "error"
    },
    {
      "inputs": [
        {
          "internalType": "address",
          "name": "owner",
          "type": "address"
        }
      ],
      "name": "OwnableInvalidOwner",
      "type": "error"
    },
    {
      "inputs": [
        {
          "internalType": "address",
          "name": "account",
          "type": "address"
        }
      ],
      "name": "OwnableUnauthorizedAccount",
      "type": "error"
    },
    {
      "anonymous": false,
      "inputs": [
        {
          "indexed": true,
          "internalType": "address",
          "name": "owner",
          "type": "address"
        },
        {
          "indexed": true,
          "internalType": "address",
          "name": "approved",
          "type": "address"
        },
        {
          "indexed": true,
          "internalType": "uint256",
          "name": "tokenId",
          "type": "uint256"
        }
      ],
      "name": "Approval",
      "type": "event"
    },
    {
      "anonymous": false,
      "inputs": [
        {
          "indexed": true,
          "internalType": "address",
          "name": "owner",
          "type": "address"
        },
        {
          "indexed": true,
          "internalType": "address",
          "name": "operator",
          "type": "address"
        },
        {
          "indexed": false,
          "internalType": "bool",
          "name": "approved",
          "type": "bool"
        }
      ],
      "name": "ApprovalForAll",
      "type": "event"
    },
    {
      "anonymous": false,
      "inputs": [
        {
          "indexed": false,
          "internalType": "uint256",
          "name": "_fromTokenId",
          "type": "uint256"
        },
        {
          "indexed": false,
          "internalType": "uint256",
          "name": "_toTokenId",
          "type": "uint256"
        }
      ],
      "name": "BatchMetadataUpdate",
      "type": "event"
    },
    {
      "anonymous": false,
      "inputs": [
        {
          "indexed": false,
          "internalType": "string",
          "name": "message",
          "type": "string"
        }
      ],
      "name": "Debug",
      "type": "event"
    },
    {
      "anonymous": false,
      "inputs": [
        {
          "indexed": true,
          "internalType": "uint256",
          "name": "tokenId",
          "type": "uint256"
        },
        {
          "indexed": true,
          "internalType": "address",
          "name": "reporter",
          "type": "address"
        }
      ],
      "name": "FraudReported",
      "type": "event"
    },
    {
      "anonymous": false,
      "inputs": [
        {
          "indexed": true,
          "internalType": "uint256",
          "name": "tokenId",
          "type": "uint256"
        },
        {
          "indexed": true,
          "internalType": "address",
          "name": "redeemer",
          "type": "address"
        }
      ],
      "name": "GifticonRedeemed",
      "type": "event"
    },
    {
      "anonymous": false,
      "inputs": [
        {
          "indexed": true,
          "internalType": "uint256",
          "name": "tokenId",
          "type": "uint256"
        },
        {
          "indexed": true,
          "internalType": "address",
          "name": "owner",
          "type": "address"
        }
      ],
      "name": "GifticonRegistered",
      "type": "event"
    },
    {
      "anonymous": false,
      "inputs": [
        {
          "indexed": false,
          "internalType": "uint256",
          "name": "_tokenId",
          "type": "uint256"
        }
      ],
      "name": "MetadataUpdate",
      "type": "event"
    },
    {
      "anonymous": false,
      "inputs": [
        {
          "indexed": true,
          "internalType": "address",
          "name": "previousOwner",
          "type": "address"
        },
        {
          "indexed": true,
          "internalType": "address",
          "name": "newOwner",
          "type": "address"
        }
      ],
      "name": "OwnershipTransferred",
      "type": "event"
    },
    {
      "anonymous": false,
      "inputs": [
        {
          "indexed": true,
          "internalType": "uint256",
          "name": "tokenId",
          "type": "uint256"
        },
        {
          "indexed": false,
          "internalType": "uint256",
          "name": "amountBurned",
          "type": "uint256"
        }
      ],
      "name": "PenaltyApplied",
      "type": "event"
    },
    {
      "anonymous": false,
      "inputs": [
        {
          "indexed": true,
          "internalType": "uint256",
          "name": "tokenId",
          "type": "uint256"
        },
        {
          "indexed": false,
          "internalType": "string",
          "name": "newURI",
          "type": "string"
        }
      ],
      "name": "TokenURIUpdated",
      "type": "event"
    },
    {
      "anonymous": false,
      "inputs": [
        {
          "indexed": true,
          "internalType": "address",
          "name": "from",
          "type": "address"
        },
        {
          "indexed": true,
          "internalType": "address",
          "name": "to",
          "type": "address"
        },
        {
          "indexed": true,
          "internalType": "uint256",
          "name": "tokenId",
          "type": "uint256"
        }
      ],
      "name": "Transfer",
      "type": "event"
    },
    {
      "inputs": [
        {
          "internalType": "address",
          "name": "to",
          "type": "address"
        },
        {
          "internalType": "uint256",
          "name": "tokenId",
          "type": "uint256"
        }
      ],
      "name": "approve",
      "outputs": [],
      "stateMutability": "nonpayable",
      "type": "function"
    },
    {
      "inputs": [
        {
          "internalType": "address",
          "name": "owner",
          "type": "address"
        }
      ],
      "name": "balanceOf",
      "outputs": [
        {
          "internalType": "uint256",
          "name": "",
          "type": "uint256"
        }
      ],
      "stateMutability": "view",
      "type": "function"
    },
    {
      "inputs": [
        {
          "internalType": "uint256",
          "name": "tokenId",
          "type": "uint256"
        }
      ],
      "name": "getApproved",
      "outputs": [
        {
          "internalType": "address",
          "name": "",
          "type": "address"
        }
      ],
      "stateMutability": "view",
      "type": "function"
    },
    {
      "inputs": [
        {
          "internalType": "uint256",
          "name": "",
          "type": "uint256"
        }
      ],
      "name": "gifticons",
      "outputs": [
        {
          "internalType": "address",
          "name": "originalOwner",
          "type": "address"
        },
        {
          "internalType": "uint256",
          "name": "depositAmount",
          "type": "uint256"
        },
        {
          "internalType": "string",
          "name": "ipfsHash",
          "type": "string"
        },
        {
          "internalType": "enum GifticonNFT.Status",
          "name": "status",
          "type": "uint8"
        },
        {
          "internalType": "uint256",
          "name": "burnTimestamp",
          "type": "uint256"
        }
      ],
      "stateMutability": "view",
      "type": "function"
    },
    {
      "inputs": [
        {
          "internalType": "address",
          "name": "owner",
          "type": "address"
        }
      ],
      "name": "gifticonsWithIdOfOwner",
      "outputs": [
        {
          "components": [
            {
              "internalType": "uint256",
              "name": "tokenId",
              "type": "uint256"
            },
            {
              "components": [
                {
                  "internalType": "address",
                  "name": "originalOwner",
                  "type": "address"
                },
                {
                  "internalType": "uint256",
                  "name": "depositAmount",
                  "type": "uint256"
                },
                {
                  "internalType": "string",
                  "name": "ipfsHash",
                  "type": "string"
                },
                {
                  "internalType": "enum GifticonNFT.Status",
                  "name": "status",
                  "type": "uint8"
                },
                {
                  "internalType": "uint256",
                  "name": "burnTimestamp",
                  "type": "uint256"
                }
              ],
              "internalType": "struct GifticonNFT.Gifticon",
              "name": "gifticon",
              "type": "tuple"
            }
          ],
          "internalType": "struct GifticonNFT.GifticonWithId[]",
          "name": "",
          "type": "tuple[]"
        }
      ],
      "stateMutability": "view",
      "type": "function"
    },
    {
      "inputs": [
        {
          "internalType": "address",
          "name": "owner",
          "type": "address"
        },
        {
          "internalType": "address",
          "name": "operator",
          "type": "address"
        }
      ],
      "name": "isApprovedForAll",
      "outputs": [
        {
          "internalType": "bool",
          "name": "",
          "type": "bool"
        }
      ],
      "stateMutability": "view",
      "type": "function"
    },
    {
      "inputs": [],
      "name": "name",
      "outputs": [
        {
          "internalType": "string",
          "name": "",
          "type": "string"
        }
      ],
      "stateMutability": "view",
      "type": "function"
    },
    {
      "inputs": [],
      "name": "nextTokenId",
      "outputs": [
        {
          "internalType": "uint256",
          "name": "",
          "type": "uint256"
        }
      ],
      "stateMutability": "view",
      "type": "function"
    },
    {
      "inputs": [
        {
          "internalType": "address",
          "name": "",
          "type": "address"
        },
        {
          "internalType": "address",
          "name": "",
          "type": "address"
        },
        {
          "internalType": "uint256",
          "name": "",
          "type": "uint256"
        },
        {
          "internalType": "bytes",
          "name": "",
          "type": "bytes"
        }
      ],
      "name": "onERC721Received",
      "outputs": [
        {
          "internalType": "bytes4",
          "name": "",
          "type": "bytes4"
        }
      ],
      "stateMutability": "pure",
      "type": "function"
    },
    {
      "inputs": [],
      "name": "owner",
      "outputs": [
        {
          "internalType": "address",
          "name": "",
          "type": "address"
        }
      ],
      "stateMutability": "view",
      "type": "function"
    },
    {
      "inputs": [
        {
          "internalType": "uint256",
          "name": "tokenId",
          "type": "uint256"
        }
      ],
      "name": "ownerOf",
      "outputs": [
        {
          "internalType": "address",
          "name": "",
          "type": "address"
        }
      ],
      "stateMutability": "view",
      "type": "function"
    },
    {
      "inputs": [
        {
          "internalType": "uint256",
          "name": "tokenId",
          "type": "uint256"
        }
      ],
      "name": "redeemGifticon",
      "outputs": [],
      "stateMutability": "nonpayable",
      "type": "function"
    },
    {
      "inputs": [
        {
          "internalType": "uint256",
          "name": "tokenId",
          "type": "uint256"
        }
      ],
      "name": "refundDeposit",
      "outputs": [],
      "stateMutability": "nonpayable",
      "type": "function"
    },
    {
      "inputs": [
        {
          "internalType": "uint256",
          "name": "expiryDate",
          "type": "uint256"
        },
        {
          "internalType": "uint256",
          "name": "depositAmount",
          "type": "uint256"
        }
      ],
      "name": "registerGifticon",
      "outputs": [],
      "stateMutability": "payable",
      "type": "function"
    },
    {
      "inputs": [],
      "name": "renounceOwnership",
      "outputs": [],
      "stateMutability": "nonpayable",
      "type": "function"
    },
    {
      "inputs": [
        {
          "internalType": "uint256",
          "name": "tokenId",
          "type": "uint256"
        }
      ],
      "name": "reportFraud",
      "outputs": [],
      "stateMutability": "nonpayable",
      "type": "function"
    },
    {
      "inputs": [
        {
          "internalType": "address",
          "name": "from",
          "type": "address"
        },
        {
          "internalType": "address",
          "name": "to",
          "type": "address"
        },
        {
          "internalType": "uint256",
          "name": "tokenId",
          "type": "uint256"
        }
      ],
      "name": "safeTransferFrom",
      "outputs": [],
      "stateMutability": "nonpayable",
      "type": "function"
    },
    {
      "inputs": [
        {
          "internalType": "address",
          "name": "from",
          "type": "address"
        },
        {
          "internalType": "address",
          "name": "to",
          "type": "address"
        },
        {
          "internalType": "uint256",
          "name": "tokenId",
          "type": "uint256"
        },
        {
          "internalType": "bytes",
          "name": "data",
          "type": "bytes"
        }
      ],
      "name": "safeTransferFrom",
      "outputs": [],
      "stateMutability": "nonpayable",
      "type": "function"
    },
    {
      "inputs": [
        {
          "internalType": "address",
          "name": "operator",
          "type": "address"
        },
        {
          "internalType": "bool",
          "name": "approved",
          "type": "bool"
        }
      ],
      "name": "setApprovalForAll",
      "outputs": [],
      "stateMutability": "nonpayable",
      "type": "function"
    },
    {
      "inputs": [
        {
          "internalType": "uint256",
          "name": "tokenId",
          "type": "uint256"
        },
        {
          "internalType": "string",
          "name": "newTokenURI",
          "type": "string"
        },
        {
          "internalType": "string",
          "name": "ipfsHash",
          "type": "string"
        }
      ],
      "name": "setTokenURIAndIpfsHash",
      "outputs": [],
      "stateMutability": "nonpayable",
      "type": "function"
    },
    {
      "inputs": [
        {
          "internalType": "bytes4",
          "name": "interfaceId",
          "type": "bytes4"
        }
      ],
      "name": "supportsInterface",
      "outputs": [
        {
          "internalType": "bool",
          "name": "",
          "type": "bool"
        }
      ],
      "stateMutability": "view",
      "type": "function"
    },
    {
      "inputs": [],
      "name": "symbol",
      "outputs": [
        {
          "internalType": "string",
          "name": "",
          "type": "string"
        }
      ],
      "stateMutability": "view",
      "type": "function"
    },
    {
      "inputs": [
        {
          "internalType": "uint256",
          "name": "tokenId",
          "type": "uint256"
        }
      ],
      "name": "tokenURI",
      "outputs": [
        {
          "internalType": "string",
          "name": "",
          "type": "string"
        }
      ],
      "stateMutability": "view",
      "type": "function"
    },
    {
      "inputs": [
        {
          "internalType": "address",
          "name": "owner",
          "type": "address"
        }
      ],
      "name": "tokensOfOwner",
      "outputs": [
        {
          "internalType": "uint256[]",
          "name": "",
          "type": "uint256[]"
        }
      ],
      "stateMutability": "view",
      "type": "function"
    },
    {
      "inputs": [
        {
          "internalType": "address",
          "name": "from",
          "type": "address"
        },
        {
          "internalType": "address",
          "name": "to",
          "type": "address"
        },
        {
          "internalType": "uint256",
          "name": "tokenId",
          "type": "uint256"
        }
      ],
      "name": "transferFrom",
      "outputs": [],
      "stateMutability": "nonpayable",
      "type": "function"
    },
    {
      "inputs": [
        {
          "internalType": "address",
          "name": "newOwner",
          "type": "address"
        }
      ],
      "name": "transferOwnership",
      "outputs": [],
      "stateMutability": "nonpayable",
      "type": "function"
    },
    {
      "inputs": [],
      "name": "withdraw",
      "outputs": [],
      "stateMutability": "nonpayable",
      "type": "function"
    }
  ],
  "bytecode": "0x608060405234801561001057600080fd5b50336040518060400160405280600b81526020017f4769667469636f6e4e46540000000000000000000000000000000000000000008152506040518060400160405280600381526020017f4746540000000000000000000000000000000000000000000000000000000000815250816000908161008d919061043d565b50806001908161009d919061043d565b505050600073ffffffffffffffffffffffffffffffffffffffff168173ffffffffffffffffffffffffffffffffffffffff16036101125760006040517f1e4fbdf70000000000000000000000000000000000000000000000000000000081526004016101099190610550565b60405180910390fd5b6101218161012760201b60201c565b5061056b565b6000600760009054906101000a900473ffffffffffffffffffffffffffffffffffffffff16905081600760006101000a81548173ffffffffffffffffffffffffffffffffffffffff021916908373ffffffffffffffffffffffffffffffffffffffff1602179055508173ffffffffffffffffffffffffffffffffffffffff168173ffffffffffffffffffffffffffffffffffffffff167f8be0079c531659141344cd1fd0a4f28419497f9722a3daafe3b4186f6b6457e060405160405180910390a35050565b600081519050919050565b7f4e487b7100000000000000000000000000000000000000000000000000000000600052604160045260246000fd5b7f4e487b7100000000000000000000000000000000000000000000000000000000600052602260045260246000fd5b6000600282049050600182168061026e57607f821691505b60208210810361028157610280610227565b5b50919050565b60008190508160005260206000209050919050565b60006020601f8301049050919050565b600082821b905092915050565b6000600883026102e97fffffffffffffffffffffffffffffffffffffffffffffffffffffffffffffffff826102ac565b6102f386836102ac565b95508019841693508086168417925050509392505050565b6000819050919050565b6000819050919050565b600061033a6103356103308461030b565b610315565b61030b565b9050919050565b6000819050919050565b6103548361031f565b61036861036082610341565b8484546102b9565b825550505050565b600090565b61037d610370565b61038881848461034b565b505050565b5b818110156103ac576103a1600082610375565b60018101905061038e565b5050565b601f8211156103f1576103c281610287565b6103cb8461029c565b810160208510156103da578190505b6103ee6103e68561029c565b83018261038d565b50505b505050565b600082821c905092915050565b6000610414600019846008026103f6565b1980831691505092915050565b600061042d8383610403565b9150826002028217905092915050565b610446826101ed565b67ffffffffffffffff81111561045f5761045e6101f8565b5b6104698254610256565b6104748282856103b0565b600060209050601f8311600181146104a75760008415610495578287015190505b61049f8582610421565b865550610507565b601f1984166104b586610287565b60005b828110156104dd578489015182556001820191506020850194506020810190506104b8565b868310156104fa57848901516104f6601f891682610403565b8355505b6001600288020188555050505b505050505050565b600073ffffffffffffffffffffffffffffffffffffffff82169050919050565b600061053a8261050f565b9050919050565b61054a8161052f565b82525050565b60006020820190506105656000830184610541565b92915050565b6140cf8061057a6000396000f3fe60806040526004361061019c5760003560e01c806375794a3c116100ec578063b88d4fde1161008a578063e985e9c511610064578063e985e9c5146105c7578063ea69236c14610604578063f2fde38b14610645578063f9cca7f31461066e5761019c565b8063b88d4fde14610538578063c87b56dd14610561578063cab3990f1461059e5761019c565b80638da5cb5b116100c65780638da5cb5b1461047c57806395d89b41146104a757806397f1764c146104d2578063a22cb4651461050f5761019c565b806375794a3c146103f8578063764b5cf2146104235780638462151c1461043f5761019c565b806323b872dd116101595780636352211e116101335780636352211e1461033e5780636de0de7e1461037b57806370a08231146103a4578063715018a6146103e15761019c565b806323b872dd146102d55780633ccfd60b146102fe57806342842e0e146103155761019c565b806301ffc9a7146101a157806306fdde03146101de578063081812fc14610209578063095ea7b3146102465780630e0549ae1461026f578063150b7a0214610298575b600080fd5b3480156101ad57600080fd5b506101c860048036038101906101c39190612b5b565b610697565b6040516101d59190612ba3565b60405180910390f35b3480156101ea57600080fd5b506101f36106f8565b6040516102009190612c4e565b60405180910390f35b34801561021557600080fd5b50610230600480360381019061022b9190612ca6565b61078a565b60405161023d9190612d14565b60405180910390f35b34801561025257600080fd5b5061026d60048036038101906102689190612d5b565b6107a6565b005b34801561027b57600080fd5b5061029660048036038101906102919190612ed0565b6107bc565b005b3480156102a457600080fd5b506102bf60048036038101906102ba9190612fbb565b61089d565b6040516102cc9190613052565b60405180910390f35b3480156102e157600080fd5b506102fc60048036038101906102f7919061306d565b6108b2565b005b34801561030a57600080fd5b506103136109b4565b005b34801561032157600080fd5b5061033c6004803603810190610337919061306d565b610a0c565b005b34801561034a57600080fd5b5061036560048036038101906103609190612ca6565b610a2c565b6040516103729190612d14565b60405180910390f35b34801561038757600080fd5b506103a2600480360381019061039d9190612ca6565b610a3e565b005b3480156103b057600080fd5b506103cb60048036038101906103c691906130c0565b610c6a565b6040516103d891906130fc565b60405180910390f35b3480156103ed57600080fd5b506103f6610d24565b005b34801561040457600080fd5b5061040d610d38565b60405161041a91906130fc565b60405180910390f35b61043d60048036038101906104389190613117565b610d3e565b005b34801561044b57600080fd5b50610466600480360381019061046191906130c0565b610f39565b6040516104739190613215565b60405180910390f35b34801561048857600080fd5b50610491611024565b60405161049e9190612d14565b60405180910390f35b3480156104b357600080fd5b506104bc61104e565b6040516104c99190612c4e565b60405180910390f35b3480156104de57600080fd5b506104f960048036038101906104f491906130c0565b6110e0565b604051610506919061347c565b60405180910390f35b34801561051b57600080fd5b50610536600480360381019061053191906134ca565b61133d565b005b34801561054457600080fd5b5061055f600480360381019061055a91906135ab565b611353565b005b34801561056d57600080fd5b5061058860048036038101906105839190612ca6565b611378565b6040516105959190612c4e565b60405180910390f35b3480156105aa57600080fd5b506105c560048036038101906105c09190612ca6565b61148b565b005b3480156105d357600080fd5b506105ee60048036038101906105e9919061362e565b611630565b6040516105fb9190612ba3565b60405180910390f35b34801561061057600080fd5b5061062b60048036038101906106269190612ca6565b6116c4565b60405161063c95949392919061367d565b60405180910390f35b34801561065157600080fd5b5061066c600480360381019061066791906130c0565b6117af565b005b34801561067a57600080fd5b5061069560048036038101906106909190612ca6565b611835565b005b6000634906490660e01b7bffffffffffffffffffffffffffffffffffffffffffffffffffffffff1916827bffffffffffffffffffffffffffffffffffffffffffffffffffffffff191614806106f157506106f0826119c3565b5b9050919050565b60606000805461070790613706565b80601f016020809104026020016040519081016040528092919081815260200182805461073390613706565b80156107805780601f1061075557610100808354040283529160200191610780565b820191906000526020600020905b81548152906001019060200180831161076357829003601f168201915b5050505050905090565b600061079582611aa5565b5061079f82611b2d565b9050919050565b6107b882826107b3611b6a565b611b72565b5050565b3373ffffffffffffffffffffffffffffffffffffffff166107dc84610a2c565b73ffffffffffffffffffffffffffffffffffffffff1614610832576040517f08c379a000000000000000000000000000000000000000000000000000000000815260040161082990613783565b60405180910390fd5b80600960008581526020019081526020016000206002019081610855919061394f565b506108608383611b84565b827f931f495b9a8e5d8e61946ea5d61e021f636cfe213a801f97589c18c152e408bd836040516108909190612c4e565b60405180910390a2505050565b600063150b7a0260e01b905095945050505050565b600073ffffffffffffffffffffffffffffffffffffffff168273ffffffffffffffffffffffffffffffffffffffff16036109245760006040517f64a0ae9200000000000000000000000000000000000000000000000000000000815260040161091b9190612d14565b60405180910390fd5b60006109388383610933611b6a565b611be0565b90508373ffffffffffffffffffffffffffffffffffffffff168173ffffffffffffffffffffffffffffffffffffffff16146109ae578382826040517f64283d7b0000000000000000000000000000000000000000000000000000000081526004016109a593929190613a21565b60405180910390fd5b50505050565b6109bc611dfa565b6109c4611024565b73ffffffffffffffffffffffffffffffffffffffff166108fc479081150290604051600060405180830381858888f19350505050158015610a09573d6000803e3d6000fd5b50565b610a2783838360405180602001604052806000815250611353565b505050565b6000610a3782611aa5565b9050919050565b60006009600083815260200190815260200160002090503373ffffffffffffffffffffffffffffffffffffffff168160000160009054906101000a900473ffffffffffffffffffffffffffffffffffffffff1673ffffffffffffffffffffffffffffffffffffffff1614610ae7576040517f08c379a0000000000000000000000000000000000000000000000000000000008152600401610ade90613aa4565b60405180910390fd5b3373ffffffffffffffffffffffffffffffffffffffff16610b0783610a2c565b73ffffffffffffffffffffffffffffffffffffffff1614610b5d576040517f08c379a0000000000000000000000000000000000000000000000000000000008152600401610b5490613b10565b60405180910390fd5b60006002811115610b7157610b706132bc565b5b8160030160009054906101000a900460ff166002811115610b9557610b946132bc565b5b14610bd5576040517f08c379a0000000000000000000000000000000000000000000000000000000008152600401610bcc90613b7c565b60405180910390fd5b6000816001015490506000826001018190555060028260030160006101000a81548160ff02191690836002811115610c1057610c0f6132bc565b5b0217905550610c1e83611e81565b3373ffffffffffffffffffffffffffffffffffffffff166108fc829081150290604051600060405180830381858888f19350505050158015610c64573d6000803e3d6000fd5b50505050565b60008073ffffffffffffffffffffffffffffffffffffffff168273ffffffffffffffffffffffffffffffffffffffff1603610cdd5760006040517f89c62b64000000000000000000000000000000000000000000000000000000008152600401610cd49190612d14565b60405180910390fd5b600360008373ffffffffffffffffffffffffffffffffffffffff1673ffffffffffffffffffffffffffffffffffffffff168152602001908152602001600020549050919050565b610d2c611dfa565b610d366000611f07565b565b60085481565b803414610d80576040517f08c379a0000000000000000000000000000000000000000000000000000000008152600401610d7790613be8565b60405180910390fd5b600060086000815480929190610d9590613c37565b919050559050610da53382611fcd565b7f7cdb51e9dbbc205231228146c3246e7f914aa6d4a33170e43ecc8e3593481d1a604051610dd290613ccb565b60405180910390a16040518060a001604052803373ffffffffffffffffffffffffffffffffffffffff16815260200183815260200160405180602001604052806000815250815260200160006002811115610e3057610e2f6132bc565b5b8152602001848152506009600083815260200190815260200160002060008201518160000160006101000a81548173ffffffffffffffffffffffffffffffffffffffff021916908373ffffffffffffffffffffffffffffffffffffffff160217905550602082015181600101556040820151816002019081610eb2919061394f565b5060608201518160030160006101000a81548160ff02191690836002811115610ede57610edd6132bc565b5b0217905550608082015181600401559050503373ffffffffffffffffffffffffffffffffffffffff16817ff235f4ebda22e266519fa73ac876a59c5e2e7ef802f52840dc28e0aee7a86cc360405160405180910390a3505050565b60606000610f4683610c6a565b905060008167ffffffffffffffff811115610f6457610f63612da5565b5b604051908082528060200260200182016040528015610f925781602001602082028036833780820191505090505b5090506000805b600854811015611018578573ffffffffffffffffffffffffffffffffffffffff16610fc382610a2c565b73ffffffffffffffffffffffffffffffffffffffff160361100b5780838380610feb90613c37565b945081518110610ffe57610ffd613ceb565b5b6020026020010181815250505b8080600101915050610f99565b50819350505050919050565b6000600760009054906101000a900473ffffffffffffffffffffffffffffffffffffffff16905090565b60606001805461105d90613706565b80601f016020809104026020016040519081016040528092919081815260200182805461108990613706565b80156110d65780601f106110ab576101008083540402835291602001916110d6565b820191906000526020600020905b8154815290600101906020018083116110b957829003601f168201915b5050505050905090565b606060006110ed83610c6a565b905060008167ffffffffffffffff81111561110b5761110a612da5565b5b60405190808252806020026020018201604052801561114457816020015b611131612a78565b8152602001906001900390816111295790505b5090506000805b600854811015611331578573ffffffffffffffffffffffffffffffffffffffff1661117582610a2c565b73ffffffffffffffffffffffffffffffffffffffff1603611324576040518060400160405280828152602001600960008481526020019081526020016000206040518060a00160405290816000820160009054906101000a900473ffffffffffffffffffffffffffffffffffffffff1673ffffffffffffffffffffffffffffffffffffffff1673ffffffffffffffffffffffffffffffffffffffff1681526020016001820154815260200160028201805461122f90613706565b80601f016020809104026020016040519081016040528092919081815260200182805461125b90613706565b80156112a85780601f1061127d576101008083540402835291602001916112a8565b820191906000526020600020905b81548152906001019060200180831161128b57829003601f168201915b505050505081526020016003820160009054906101000a900460ff1660028111156112d6576112d56132bc565b5b60028111156112e8576112e76132bc565b5b815260200160048201548152505081525083838061130590613c37565b94508151811061131857611317613ceb565b5b60200260200101819052505b808060010191505061114b565b50819350505050919050565b61134f611348611b6a565b83836120c6565b5050565b61135e8484846108b2565b611372611369611b6a565b85858585612235565b50505050565b606061138382611aa5565b5060006006600084815260200190815260200160002080546113a490613706565b80601f01602080910402602001604051908101604052809291908181526020018280546113d090613706565b801561141d5780601f106113f25761010080835404028352916020019161141d565b820191906000526020600020905b81548152906001019060200180831161140057829003601f168201915b50505050509050600061142e6123e6565b90506000815103611443578192505050611486565b600082511115611478578082604051602001611460929190613d56565b60405160208183030381529060405292505050611486565b611481846123fd565b925050505b919050565b6000600960008381526020019081526020016000209050600160028111156114b6576114b56132bc565b5b8160030160009054906101000a900460ff1660028111156114da576114d96132bc565b5b1461151a576040517f08c379a000000000000000000000000000000000000000000000000000000000815260040161151190613dc6565b60405180910390fd5b62015180816004015461152d9190613de6565b42111561156f576040517f08c379a000000000000000000000000000000000000000000000000000000000815260040161156690613e66565b60405180910390fd5b60028160030160006101000a81548160ff02191690836002811115611597576115966132bc565b5b0217905550600081600101549050600082600101819055503373ffffffffffffffffffffffffffffffffffffffff16837f519ba9a00e84000cf73eb4dead0e2e04a983f1e23fdaf9cdefe13cff4883c55160405160405180910390a3827f8cde5670f6ee74478a4d7a5073596874894ea932ab8cc9c2ee3e0ae61c42e4ca8260405161162391906130fc565b60405180910390a2505050565b6000600560008473ffffffffffffffffffffffffffffffffffffffff1673ffffffffffffffffffffffffffffffffffffffff16815260200190815260200160002060008373ffffffffffffffffffffffffffffffffffffffff1673ffffffffffffffffffffffffffffffffffffffff16815260200190815260200160002060009054906101000a900460ff16905092915050565b60096020528060005260406000206000915090508060000160009054906101000a900473ffffffffffffffffffffffffffffffffffffffff169080600101549080600201805461171390613706565b80601f016020809104026020016040519081016040528092919081815260200182805461173f90613706565b801561178c5780601f106117615761010080835404028352916020019161178c565b820191906000526020600020905b81548152906001019060200180831161176f57829003601f168201915b5050505050908060030160009054906101000a900460ff16908060040154905085565b6117b7611dfa565b600073ffffffffffffffffffffffffffffffffffffffff168173ffffffffffffffffffffffffffffffffffffffff16036118295760006040517f1e4fbdf70000000000000000000000000000000000000000000000000000000081526004016118209190612d14565b60405180910390fd5b61183281611f07565b50565b3373ffffffffffffffffffffffffffffffffffffffff1661185582610a2c565b73ffffffffffffffffffffffffffffffffffffffff16146118ab576040517f08c379a00000000000000000000000000000000000000000000000000000000081526004016118a290613ed2565b60405180910390fd5b6000600960008381526020019081526020016000209050600060028111156118d6576118d56132bc565b5b8160030160009054906101000a900460ff1660028111156118fa576118f96132bc565b5b1461193a576040517f08c379a000000000000000000000000000000000000000000000000000000000815260040161193190613f3e565b60405180910390fd5b60018160030160006101000a81548160ff02191690836002811115611962576119616132bc565b5b021790555042816004018190555061197b333084610a0c565b3373ffffffffffffffffffffffffffffffffffffffff16827f5572c73fa9d731a77b8f543bcb1446b93f25682511bc350d4fd0cbbf2ac2b8f960405160405180910390a35050565b60007f80ac58cd000000000000000000000000000000000000000000000000000000007bffffffffffffffffffffffffffffffffffffffffffffffffffffffff1916827bffffffffffffffffffffffffffffffffffffffffffffffffffffffff19161480611a8e57507f5b5e139f000000000000000000000000000000000000000000000000000000007bffffffffffffffffffffffffffffffffffffffffffffffffffffffff1916827bffffffffffffffffffffffffffffffffffffffffffffffffffffffff1916145b80611a9e5750611a9d82612466565b5b9050919050565b600080611ab1836124d0565b9050600073ffffffffffffffffffffffffffffffffffffffff168173ffffffffffffffffffffffffffffffffffffffff1603611b2457826040517f7e273289000000000000000000000000000000000000000000000000000000008152600401611b1b91906130fc565b60405180910390fd5b80915050919050565b60006004600083815260200190815260200160002060009054906101000a900473ffffffffffffffffffffffffffffffffffffffff169050919050565b600033905090565b611b7f838383600161250d565b505050565b80600660008481526020019081526020016000209081611ba4919061394f565b507ff8e1a15aba9398e019f0b49df1a4fde98ee17ae345cb5f6b5e2c27f5033e8ce782604051611bd491906130fc565b60405180910390a15050565b600080611bec846124d0565b9050600073ffffffffffffffffffffffffffffffffffffffff168373ffffffffffffffffffffffffffffffffffffffff1614611c2e57611c2d8184866126d2565b5b600073ffffffffffffffffffffffffffffffffffffffff168173ffffffffffffffffffffffffffffffffffffffff1614611cbf57611c7060008560008061250d565b6001600360008373ffffffffffffffffffffffffffffffffffffffff1673ffffffffffffffffffffffffffffffffffffffff168152602001908152602001600020600082825403925050819055505b600073ffffffffffffffffffffffffffffffffffffffff168573ffffffffffffffffffffffffffffffffffffffff1614611d42576001600360008773ffffffffffffffffffffffffffffffffffffffff1673ffffffffffffffffffffffffffffffffffffffff168152602001908152602001600020600082825401925050819055505b846002600086815260200190815260200160002060006101000a81548173ffffffffffffffffffffffffffffffffffffffff021916908373ffffffffffffffffffffffffffffffffffffffff160217905550838573ffffffffffffffffffffffffffffffffffffffff168273ffffffffffffffffffffffffffffffffffffffff167fddf252ad1be2c89b69c2b068fc378daa952ba7f163c4a11628f55a4df523b3ef60405160405180910390a4809150509392505050565b611e02611b6a565b73ffffffffffffffffffffffffffffffffffffffff16611e20611024565b73ffffffffffffffffffffffffffffffffffffffff1614611e7f57611e43611b6a565b6040517f118cdaa7000000000000000000000000000000000000000000000000000000008152600401611e769190612d14565b60405180910390fd5b565b6000611e906000836000611be0565b9050600073ffffffffffffffffffffffffffffffffffffffff168173ffffffffffffffffffffffffffffffffffffffff1603611f0357816040517f7e273289000000000000000000000000000000000000000000000000000000008152600401611efa91906130fc565b60405180910390fd5b5050565b6000600760009054906101000a900473ffffffffffffffffffffffffffffffffffffffff16905081600760006101000a81548173ffffffffffffffffffffffffffffffffffffffff021916908373ffffffffffffffffffffffffffffffffffffffff1602179055508173ffffffffffffffffffffffffffffffffffffffff168173ffffffffffffffffffffffffffffffffffffffff167f8be0079c531659141344cd1fd0a4f28419497f9722a3daafe3b4186f6b6457e060405160405180910390a35050565b600073ffffffffffffffffffffffffffffffffffffffff168273ffffffffffffffffffffffffffffffffffffffff160361203f5760006040517f64a0ae920000000000000000000000000000000000000000000000000000000081526004016120369190612d14565b60405180910390fd5b600061204d83836000611be0565b9050600073ffffffffffffffffffffffffffffffffffffffff168173ffffffffffffffffffffffffffffffffffffffff16146120c15760006040517f73c6ac6e0000000000000000000000000000000000000000000000000000000081526004016120b89190612d14565b60405180910390fd5b505050565b600073ffffffffffffffffffffffffffffffffffffffff168273ffffffffffffffffffffffffffffffffffffffff160361213757816040517f5b08ba1800000000000000000000000000000000000000000000000000000000815260040161212e9190612d14565b60405180910390fd5b80600560008573ffffffffffffffffffffffffffffffffffffffff1673ffffffffffffffffffffffffffffffffffffffff16815260200190815260200160002060008473ffffffffffffffffffffffffffffffffffffffff1673ffffffffffffffffffffffffffffffffffffffff16815260200190815260200160002060006101000a81548160ff0219169083151502179055508173ffffffffffffffffffffffffffffffffffffffff168373ffffffffffffffffffffffffffffffffffffffff167f17307eab39ab6107e8899845ad3d59bd9653f200f220920489ca2b5937696c31836040516122289190612ba3565b60405180910390a3505050565b60008373ffffffffffffffffffffffffffffffffffffffff163b11156123df578273ffffffffffffffffffffffffffffffffffffffff1663150b7a02868685856040518563ffffffff1660e01b81526004016122949493929190613fb3565b6020604051808303816000875af19250505080156122d057506040513d601f19601f820116820180604052508101906122cd9190614014565b60015b612354573d8060008114612300576040519150601f19603f3d011682016040523d82523d6000602084013e612305565b606091505b50600081510361234c57836040517f64a0ae920000000000000000000000000000000000000000000000000000000081526004016123439190612d14565b60405180910390fd5b805181602001fd5b63150b7a0260e01b7bffffffffffffffffffffffffffffffffffffffffffffffffffffffff1916817bffffffffffffffffffffffffffffffffffffffffffffffffffffffff1916146123dd57836040517f64a0ae920000000000000000000000000000000000000000000000000000000081526004016123d49190612d14565b60405180910390fd5b505b5050505050565b606060405180602001604052806000815250905090565b606061240882611aa5565b5060006124136123e6565b90506000815111612433576040518060200160405280600081525061245e565b8061243d84612796565b60405160200161244e929190613d56565b6040516020818303038152906040525b915050919050565b60007f01ffc9a7000000000000000000000000000000000000000000000000000000007bffffffffffffffffffffffffffffffffffffffffffffffffffffffff1916827bffffffffffffffffffffffffffffffffffffffffffffffffffffffff1916149050919050565b60006002600083815260200190815260200160002060009054906101000a900473ffffffffffffffffffffffffffffffffffffffff169050919050565b80806125465750600073ffffffffffffffffffffffffffffffffffffffff168273ffffffffffffffffffffffffffffffffffffffff1614155b1561267a57600061255684611aa5565b9050600073ffffffffffffffffffffffffffffffffffffffff168373ffffffffffffffffffffffffffffffffffffffff16141580156125c157508273ffffffffffffffffffffffffffffffffffffffff168173ffffffffffffffffffffffffffffffffffffffff1614155b80156125d457506125d28184611630565b155b1561261657826040517fa9fbf51f00000000000000000000000000000000000000000000000000000000815260040161260d9190612d14565b60405180910390fd5b811561267857838573ffffffffffffffffffffffffffffffffffffffff168273ffffffffffffffffffffffffffffffffffffffff167f8c5be1e5ebec7d5bd14f71427d1e84f3dd0314c0f7b2291e5b200ac8c7c3b92560405160405180910390a45b505b836004600085815260200190815260200160002060006101000a81548173ffffffffffffffffffffffffffffffffffffffff021916908373ffffffffffffffffffffffffffffffffffffffff16021790555050505050565b6126dd838383612864565b61279157600073ffffffffffffffffffffffffffffffffffffffff168373ffffffffffffffffffffffffffffffffffffffff160361275257806040517f7e27328900000000000000000000000000000000000000000000000000000000815260040161274991906130fc565b60405180910390fd5b81816040517f177e802f000000000000000000000000000000000000000000000000000000008152600401612788929190614041565b60405180910390fd5b505050565b6060600060016127a584612925565b01905060008167ffffffffffffffff8111156127c4576127c3612da5565b5b6040519080825280601f01601f1916602001820160405280156127f65781602001600182028036833780820191505090505b509050600082602001820190505b600115612859578080600190039150507f3031323334353637383961626364656600000000000000000000000000000000600a86061a8153600a858161284d5761284c61406a565b5b04945060008503612804575b819350505050919050565b60008073ffffffffffffffffffffffffffffffffffffffff168373ffffffffffffffffffffffffffffffffffffffff161415801561291c57508273ffffffffffffffffffffffffffffffffffffffff168473ffffffffffffffffffffffffffffffffffffffff1614806128dd57506128dc8484611630565b5b8061291b57508273ffffffffffffffffffffffffffffffffffffffff1661290383611b2d565b73ffffffffffffffffffffffffffffffffffffffff16145b5b90509392505050565b600080600090507a184f03e93ff9f4daa797ed6e38ed64bf6a1f0100000000000000008310612983577a184f03e93ff9f4daa797ed6e38ed64bf6a1f01000000000000000083816129795761297861406a565b5b0492506040810190505b6d04ee2d6d415b85acef810000000083106129c0576d04ee2d6d415b85acef810000000083816129b6576129b561406a565b5b0492506020810190505b662386f26fc1000083106129ef57662386f26fc1000083816129e5576129e461406a565b5b0492506010810190505b6305f5e1008310612a18576305f5e1008381612a0e57612a0d61406a565b5b0492506008810190505b6127108310612a3d576127108381612a3357612a3261406a565b5b0492506004810190505b60648310612a605760648381612a5657612a5561406a565b5b0492506002810190505b600a8310612a6f576001810190505b80915050919050565b604051806040016040528060008152602001612a92612a98565b81525090565b6040518060a00160405280600073ffffffffffffffffffffffffffffffffffffffff168152602001600081526020016060815260200160006002811115612ae257612ae16132bc565b5b8152602001600081525090565b6000604051905090565b600080fd5b600080fd5b60007fffffffff0000000000000000000000000000000000000000000000000000000082169050919050565b612b3881612b03565b8114612b4357600080fd5b50565b600081359050612b5581612b2f565b92915050565b600060208284031215612b7157612b70612af9565b5b6000612b7f84828501612b46565b91505092915050565b60008115159050919050565b612b9d81612b88565b82525050565b6000602082019050612bb86000830184612b94565b92915050565b600081519050919050565b600082825260208201905092915050565b60005b83811015612bf8578082015181840152602081019050612bdd565b60008484015250505050565b6000601f19601f8301169050919050565b6000612c2082612bbe565b612c2a8185612bc9565b9350612c3a818560208601612bda565b612c4381612c04565b840191505092915050565b60006020820190508181036000830152612c688184612c15565b905092915050565b6000819050919050565b612c8381612c70565b8114612c8e57600080fd5b50565b600081359050612ca081612c7a565b92915050565b600060208284031215612cbc57612cbb612af9565b5b6000612cca84828501612c91565b91505092915050565b600073ffffffffffffffffffffffffffffffffffffffff82169050919050565b6000612cfe82612cd3565b9050919050565b612d0e81612cf3565b82525050565b6000602082019050612d296000830184612d05565b92915050565b612d3881612cf3565b8114612d4357600080fd5b50565b600081359050612d5581612d2f565b92915050565b60008060408385031215612d7257612d71612af9565b5b6000612d8085828601612d46565b9250506020612d9185828601612c91565b9150509250929050565b600080fd5b600080fd5b7f4e487b7100000000000000000000000000000000000000000000000000000000600052604160045260246000fd5b612ddd82612c04565b810181811067ffffffffffffffff82111715612dfc57612dfb612da5565b5b80604052505050565b6000612e0f612aef565b9050612e1b8282612dd4565b919050565b600067ffffffffffffffff821115612e3b57612e3a612da5565b5b612e4482612c04565b9050602081019050919050565b82818337600083830152505050565b6000612e73612e6e84612e20565b612e05565b905082815260208101848484011115612e8f57612e8e612da0565b5b612e9a848285612e51565b509392505050565b600082601f830112612eb757612eb6612d9b565b5b8135612ec7848260208601612e60565b91505092915050565b600080600060608486031215612ee957612ee8612af9565b5b6000612ef786828701612c91565b935050602084013567ffffffffffffffff811115612f1857612f17612afe565b5b612f2486828701612ea2565b925050604084013567ffffffffffffffff811115612f4557612f44612afe565b5b612f5186828701612ea2565b9150509250925092565b600080fd5b600080fd5b60008083601f840112612f7b57612f7a612d9b565b5b8235905067ffffffffffffffff811115612f9857612f97612f5b565b5b602083019150836001820283011115612fb457612fb3612f60565b5b9250929050565b600080600080600060808688031215612fd757612fd6612af9565b5b6000612fe588828901612d46565b9550506020612ff688828901612d46565b945050604061300788828901612c91565b935050606086013567ffffffffffffffff81111561302857613027612afe565b5b61303488828901612f65565b92509250509295509295909350565b61304c81612b03565b82525050565b60006020820190506130676000830184613043565b92915050565b60008060006060848603121561308657613085612af9565b5b600061309486828701612d46565b93505060206130a586828701612d46565b92505060406130b686828701612c91565b9150509250925092565b6000602082840312156130d6576130d5612af9565b5b60006130e484828501612d46565b91505092915050565b6130f681612c70565b82525050565b600060208201905061311160008301846130ed565b92915050565b6000806040838503121561312e5761312d612af9565b5b600061313c85828601612c91565b925050602061314d85828601612c91565b9150509250929050565b600081519050919050565b600082825260208201905092915050565b6000819050602082019050919050565b61318c81612c70565b82525050565b600061319e8383613183565b60208301905092915050565b6000602082019050919050565b60006131c282613157565b6131cc8185613162565b93506131d783613173565b8060005b838110156132085781516131ef8882613192565b97506131fa836131aa565b9250506001810190506131db565b5085935050505092915050565b6000602082019050818103600083015261322f81846131b7565b905092915050565b600081519050919050565b600082825260208201905092915050565b6000819050602082019050919050565b61326c81612cf3565b82525050565b600082825260208201905092915050565b600061328e82612bbe565b6132988185613272565b93506132a8818560208601612bda565b6132b181612c04565b840191505092915050565b7f4e487b7100000000000000000000000000000000000000000000000000000000600052602160045260246000fd5b600381106132fc576132fb6132bc565b5b50565b600081905061330d826132eb565b919050565b600061331d826132ff565b9050919050565b61332d81613312565b82525050565b600060a08301600083015161334b6000860182613263565b50602083015161335e6020860182613183565b50604083015184820360408601526133768282613283565b915050606083015161338b6060860182613324565b50608083015161339e6080860182613183565b508091505092915050565b60006040830160008301516133c16000860182613183565b50602083015184820360208601526133d98282613333565b9150508091505092915050565b60006133f283836133a9565b905092915050565b6000602082019050919050565b600061341282613237565b61341c8185613242565b93508360208202850161342e85613253565b8060005b8581101561346a578484038952815161344b85826133e6565b9450613456836133fa565b925060208a01995050600181019050613432565b50829750879550505050505092915050565b600060208201905081810360008301526134968184613407565b905092915050565b6134a781612b88565b81146134b257600080fd5b50565b6000813590506134c48161349e565b92915050565b600080604083850312156134e1576134e0612af9565b5b60006134ef85828601612d46565b9250506020613500858286016134b5565b9150509250929050565b600067ffffffffffffffff82111561352557613524612da5565b5b61352e82612c04565b9050602081019050919050565b600061354e6135498461350a565b612e05565b90508281526020810184848401111561356a57613569612da0565b5b613575848285612e51565b509392505050565b600082601f83011261359257613591612d9b565b5b81356135a284826020860161353b565b91505092915050565b600080600080608085870312156135c5576135c4612af9565b5b60006135d387828801612d46565b94505060206135e487828801612d46565b93505060406135f587828801612c91565b925050606085013567ffffffffffffffff81111561361657613615612afe565b5b6136228782880161357d565b91505092959194509250565b6000806040838503121561364557613644612af9565b5b600061365385828601612d46565b925050602061366485828601612d46565b9150509250929050565b61367781613312565b82525050565b600060a0820190506136926000830188612d05565b61369f60208301876130ed565b81810360408301526136b18186612c15565b90506136c0606083018561366e565b6136cd60808301846130ed565b9695505050505050565b7f4e487b7100000000000000000000000000000000000000000000000000000000600052602260045260246000fd5b6000600282049050600182168061371e57607f821691505b602082108103613731576137306136d7565b5b50919050565b7f4f6e6c7920746f6b656e206f776e65722063616e207570646174652055524900600082015250565b600061376d601f83612bc9565b915061377882613737565b602082019050919050565b6000602082019050818103600083015261379c81613760565b9050919050565b60008190508160005260206000209050919050565b60006020601f8301049050919050565b600082821b905092915050565b6000600883026138057fffffffffffffffffffffffffffffffffffffffffffffffffffffffffffffffff826137c8565b61380f86836137c8565b95508019841693508086168417925050509392505050565b6000819050919050565b600061384c61384761384284612c70565b613827565b612c70565b9050919050565b6000819050919050565b61386683613831565b61387a61387282613853565b8484546137d5565b825550505050565b600090565b61388f613882565b61389a81848461385d565b505050565b5b818110156138be576138b3600082613887565b6001810190506138a0565b5050565b601f821115613903576138d4816137a3565b6138dd846137b8565b810160208510156138ec578190505b6139006138f8856137b8565b83018261389f565b50505b505050565b600082821c905092915050565b600061392660001984600802613908565b1980831691505092915050565b600061393f8383613915565b9150826002028217905092915050565b61395882612bbe565b67ffffffffffffffff81111561397157613970612da5565b5b61397b8254613706565b6139868282856138c2565b600060209050601f8311600181146139b957600084156139a7578287015190505b6139b18582613933565b865550613a19565b601f1984166139c7866137a3565b60005b828110156139ef578489015182556001820191506020850194506020810190506139ca565b86831015613a0c5784890151613a08601f891682613915565b8355505b6001600288020188555050505b505050505050565b6000606082019050613a366000830186612d05565b613a4360208301856130ed565b613a506040830184612d05565b949350505050565b7f4e6f74206f726967696e616c206f776e65720000000000000000000000000000600082015250565b6000613a8e601283612bc9565b9150613a9982613a58565b602082019050919050565b60006020820190508181036000830152613abd81613a81565b9050919050565b7f596f75206d757374206f776e20746865204e4654000000000000000000000000600082015250565b6000613afa601483612bc9565b9150613b0582613ac4565b602082019050919050565b60006020820190508181036000830152613b2981613aed565b9050919050565b7f4e6f7420726566756e6461626c65000000000000000000000000000000000000600082015250565b6000613b66600e83612bc9565b9150613b7182613b30565b602082019050919050565b60006020820190508181036000830152613b9581613b59565b9050919050565b7f496e636f7272656374206465706f736974000000000000000000000000000000600082015250565b6000613bd2601183612bc9565b9150613bdd82613b9c565b602082019050919050565b60006020820190508181036000830152613c0181613bc5565b9050919050565b7f4e487b7100000000000000000000000000000000000000000000000000000000600052601160045260246000fd5b6000613c4282612c70565b91507fffffffffffffffffffffffffffffffffffffffffffffffffffffffffffffffff8203613c7457613c73613c08565b5b600182019050919050565b7f6d696e7420636f6d706c65746500000000000000000000000000000000000000600082015250565b6000613cb5600d83612bc9565b9150613cc082613c7f565b602082019050919050565b60006020820190508181036000830152613ce481613ca8565b9050919050565b7f4e487b7100000000000000000000000000000000000000000000000000000000600052603260045260246000fd5b600081905092915050565b6000613d3082612bbe565b613d3a8185613d1a565b9350613d4a818560208601612bda565b80840191505092915050565b6000613d628285613d25565b9150613d6e8284613d25565b91508190509392505050565b7f4e6f742072656465656d61626c65000000000000000000000000000000000000600082015250565b6000613db0600e83612bc9565b9150613dbb82613d7a565b602082019050919050565b60006020820190508181036000830152613ddf81613da3565b9050919050565b6000613df182612c70565b9150613dfc83612c70565b9250828201905080821115613e1457613e13613c08565b5b92915050565b7f5265706f72742077696e646f7720636c6f736564000000000000000000000000600082015250565b6000613e50601483612bc9565b9150613e5b82613e1a565b602082019050919050565b60006020820190508181036000830152613e7f81613e43565b9050919050565b7f4e6f7420746865206f776e657200000000000000000000000000000000000000600082015250565b6000613ebc600d83612bc9565b9150613ec782613e86565b602082019050919050565b60006020820190508181036000830152613eeb81613eaf565b9050919050565b7f416c72656164792072656465656d6564206f722070656e616c697a6564000000600082015250565b6000613f28601d83612bc9565b9150613f3382613ef2565b602082019050919050565b60006020820190508181036000830152613f5781613f1b565b9050919050565b600081519050919050565b600082825260208201905092915050565b6000613f8582613f5e565b613f8f8185613f69565b9350613f9f818560208601612bda565b613fa881612c04565b840191505092915050565b6000608082019050613fc86000830187612d05565b613fd56020830186612d05565b613fe260408301856130ed565b8181036060830152613ff48184613f7a565b905095945050505050565b60008151905061400e81612b2f565b92915050565b60006020828403121561402a57614029612af9565b5b600061403884828501613fff565b91505092915050565b60006040820190506140566000830185612d05565b61406360208301846130ed565b9392505050565b7f4e487b7100000000000000000000000000000000000000000000000000000000600052601260045260246000fdfea26469706673582212200329725a81beb68b08aff2261c7ca7a55128ea2d9331861e48ea31c05df6fc1464736f6c634300081c0033",
  "linkReferences": {},
  "deployedLinkReferences": {}
}