{
  "_format": "hh-sol-artifact-1",
  "contractName": "GifticonNFT",
  "sourceName": "contracts/GifticonNFT.sol",
  "abi": [
    {
      "inputs": [],
      "stateMutability": "nonpayable",
      "type": "constructor"
    },
    {
      "inputs": [
        {
          "internalType": "address",
          "name": "sender",
          "type": "address"
        },
        {
          "internalType": "uint256",
          "name": "tokenId",
          "type": "uint256"
        },
        {
          "internalType": "address",
          "name": "owner",
          "type": "address"
        }
      ],
      "name": "ERC721IncorrectOwner",
      "type": "error"
    },
    {
      "inputs": [
        {
          "internalType": "address",
          "name": "operator",
          "type": "address"
        },
        {
          "internalType": "uint256",
          "name": "tokenId",
          "type": "uint256"
        }
      ],
      "name": "ERC721InsufficientApproval",
      "type": "error"
    },
    {
      "inputs": [
        {
          "internalType": "address",
          "name": "approver",
          "type": "address"
        }
      ],
      "name": "ERC721InvalidApprover",
      "type": "error"
    },
    {
      "inputs": [
        {
          "internalType": "address",
          "name": "operator",
          "type": "address"
        }
      ],
      "name": "ERC721InvalidOperator",
      "type": "error"
    },
    {
      "inputs": [
        {
          "internalType": "address",
          "name": "owner",
          "type": "address"
        }
      ],
      "name": "ERC721InvalidOwner",
      "type": "error"
    },
    {
      "inputs": [
        {
          "internalType": "address",
          "name": "receiver",
          "type": "address"
        }
      ],
      "name": "ERC721InvalidReceiver",
      "type": "error"
    },
    {
      "inputs": [
        {
          "internalType": "address",
          "name": "sender",
          "type": "address"
        }
      ],
      "name": "ERC721InvalidSender",
      "type": "error"
    },
    {
      "inputs": [
        {
          "internalType": "uint256",
          "name": "tokenId",
          "type": "uint256"
        }
      ],
      "name": "ERC721NonexistentToken",
      "type": "error"
    },
    {
      "inputs": [
        {
          "internalType": "address",
          "name": "owner",
          "type": "address"
        }
      ],
      "name": "OwnableInvalidOwner",
      "type": "error"
    },
    {
      "inputs": [
        {
          "internalType": "address",
          "name": "account",
          "type": "address"
        }
      ],
      "name": "OwnableUnauthorizedAccount",
      "type": "error"
    },
    {
      "anonymous": false,
      "inputs": [
        {
          "indexed": true,
          "internalType": "address",
          "name": "owner",
          "type": "address"
        },
        {
          "indexed": true,
          "internalType": "address",
          "name": "approved",
          "type": "address"
        },
        {
          "indexed": true,
          "internalType": "uint256",
          "name": "tokenId",
          "type": "uint256"
        }
      ],
      "name": "Approval",
      "type": "event"
    },
    {
      "anonymous": false,
      "inputs": [
        {
          "indexed": true,
          "internalType": "address",
          "name": "owner",
          "type": "address"
        },
        {
          "indexed": true,
          "internalType": "address",
          "name": "operator",
          "type": "address"
        },
        {
          "indexed": false,
          "internalType": "bool",
          "name": "approved",
          "type": "bool"
        }
      ],
      "name": "ApprovalForAll",
      "type": "event"
    },
    {
      "anonymous": false,
      "inputs": [
        {
          "indexed": false,
          "internalType": "uint256",
          "name": "_fromTokenId",
          "type": "uint256"
        },
        {
          "indexed": false,
          "internalType": "uint256",
          "name": "_toTokenId",
          "type": "uint256"
        }
      ],
      "name": "BatchMetadataUpdate",
      "type": "event"
    },
    {
      "anonymous": false,
      "inputs": [
        {
          "indexed": true,
          "internalType": "uint256",
          "name": "tokenId",
          "type": "uint256"
        },
        {
          "indexed": true,
          "internalType": "address",
          "name": "reporter",
          "type": "address"
        }
      ],
      "name": "FraudReported",
      "type": "event"
    },
    {
      "anonymous": false,
      "inputs": [
        {
          "indexed": true,
          "internalType": "uint256",
          "name": "tokenId",
          "type": "uint256"
        },
        {
          "indexed": true,
          "internalType": "address",
          "name": "redeemer",
          "type": "address"
        }
      ],
      "name": "GifticonRedeemed",
      "type": "event"
    },
    {
      "anonymous": false,
      "inputs": [
        {
          "indexed": true,
          "internalType": "uint256",
          "name": "tokenId",
          "type": "uint256"
        },
        {
          "indexed": true,
          "internalType": "address",
          "name": "owner",
          "type": "address"
        },
        {
          "indexed": false,
          "internalType": "string",
          "name": "ipfsHash",
          "type": "string"
        }
      ],
      "name": "GifticonRegistered",
      "type": "event"
    },
    {
      "anonymous": false,
      "inputs": [
        {
          "indexed": false,
          "internalType": "uint256",
          "name": "_tokenId",
          "type": "uint256"
        }
      ],
      "name": "MetadataUpdate",
      "type": "event"
    },
    {
      "anonymous": false,
      "inputs": [
        {
          "indexed": true,
          "internalType": "address",
          "name": "previousOwner",
          "type": "address"
        },
        {
          "indexed": true,
          "internalType": "address",
          "name": "newOwner",
          "type": "address"
        }
      ],
      "name": "OwnershipTransferred",
      "type": "event"
    },
    {
      "anonymous": false,
      "inputs": [
        {
          "indexed": true,
          "internalType": "uint256",
          "name": "tokenId",
          "type": "uint256"
        },
        {
          "indexed": false,
          "internalType": "uint256",
          "name": "amountBurned",
          "type": "uint256"
        }
      ],
      "name": "PenaltyApplied",
      "type": "event"
    },
    {
      "anonymous": false,
      "inputs": [
        {
          "indexed": true,
          "internalType": "address",
          "name": "from",
          "type": "address"
        },
        {
          "indexed": true,
          "internalType": "address",
          "name": "to",
          "type": "address"
        },
        {
          "indexed": true,
          "internalType": "uint256",
          "name": "tokenId",
          "type": "uint256"
        }
      ],
      "name": "Transfer",
      "type": "event"
    },
    {
      "inputs": [],
      "name": "DEPOSIT_AMOUNT",
      "outputs": [
        {
          "internalType": "uint256",
          "name": "",
          "type": "uint256"
        }
      ],
      "stateMutability": "view",
      "type": "function"
    },
    {
      "inputs": [
        {
          "internalType": "address",
          "name": "to",
          "type": "address"
        },
        {
          "internalType": "uint256",
          "name": "tokenId",
          "type": "uint256"
        }
      ],
      "name": "approve",
      "outputs": [],
      "stateMutability": "nonpayable",
      "type": "function"
    },
    {
      "inputs": [
        {
          "internalType": "address",
          "name": "owner",
          "type": "address"
        }
      ],
      "name": "balanceOf",
      "outputs": [
        {
          "internalType": "uint256",
          "name": "",
          "type": "uint256"
        }
      ],
      "stateMutability": "view",
      "type": "function"
    },
    {
      "inputs": [
        {
          "internalType": "uint256",
          "name": "tokenId",
          "type": "uint256"
        }
      ],
      "name": "getApproved",
      "outputs": [
        {
          "internalType": "address",
          "name": "",
          "type": "address"
        }
      ],
      "stateMutability": "view",
      "type": "function"
    },
    {
      "inputs": [
        {
          "internalType": "uint256",
          "name": "",
          "type": "uint256"
        }
      ],
      "name": "gifticons",
      "outputs": [
        {
          "internalType": "address",
          "name": "originalOwner",
          "type": "address"
        },
        {
          "internalType": "uint256",
          "name": "depositAmount",
          "type": "uint256"
        },
        {
          "internalType": "string",
          "name": "ipfsHash",
          "type": "string"
        },
        {
          "internalType": "enum GifticonNFT.Status",
          "name": "status",
          "type": "uint8"
        },
        {
          "internalType": "uint256",
          "name": "burnTimestamp",
          "type": "uint256"
        }
      ],
      "stateMutability": "view",
      "type": "function"
    },
    {
      "inputs": [
        {
          "internalType": "address",
          "name": "owner",
          "type": "address"
        },
        {
          "internalType": "address",
          "name": "operator",
          "type": "address"
        }
      ],
      "name": "isApprovedForAll",
      "outputs": [
        {
          "internalType": "bool",
          "name": "",
          "type": "bool"
        }
      ],
      "stateMutability": "view",
      "type": "function"
    },
    {
      "inputs": [],
      "name": "name",
      "outputs": [
        {
          "internalType": "string",
          "name": "",
          "type": "string"
        }
      ],
      "stateMutability": "view",
      "type": "function"
    },
    {
      "inputs": [],
      "name": "nextTokenId",
      "outputs": [
        {
          "internalType": "uint256",
          "name": "",
          "type": "uint256"
        }
      ],
      "stateMutability": "view",
      "type": "function"
    },
    {
      "inputs": [
        {
          "internalType": "address",
          "name": "",
          "type": "address"
        },
        {
          "internalType": "address",
          "name": "",
          "type": "address"
        },
        {
          "internalType": "uint256",
          "name": "",
          "type": "uint256"
        },
        {
          "internalType": "bytes",
          "name": "",
          "type": "bytes"
        }
      ],
      "name": "onERC721Received",
      "outputs": [
        {
          "internalType": "bytes4",
          "name": "",
          "type": "bytes4"
        }
      ],
      "stateMutability": "pure",
      "type": "function"
    },
    {
      "inputs": [],
      "name": "owner",
      "outputs": [
        {
          "internalType": "address",
          "name": "",
          "type": "address"
        }
      ],
      "stateMutability": "view",
      "type": "function"
    },
    {
      "inputs": [
        {
          "internalType": "uint256",
          "name": "tokenId",
          "type": "uint256"
        }
      ],
      "name": "ownerOf",
      "outputs": [
        {
          "internalType": "address",
          "name": "",
          "type": "address"
        }
      ],
      "stateMutability": "view",
      "type": "function"
    },
    {
      "inputs": [
        {
          "internalType": "uint256",
          "name": "tokenId",
          "type": "uint256"
        }
      ],
      "name": "redeemGifticon",
      "outputs": [],
      "stateMutability": "nonpayable",
      "type": "function"
    },
    {
      "inputs": [
        {
          "internalType": "uint256",
          "name": "tokenId",
          "type": "uint256"
        }
      ],
      "name": "refundDeposit",
      "outputs": [],
      "stateMutability": "nonpayable",
      "type": "function"
    },
    {
      "inputs": [
        {
          "internalType": "string",
          "name": "ipfsHash",
          "type": "string"
        },
        {
          "internalType": "string",
          "name": "tokenURI",
          "type": "string"
        },
        {
          "internalType": "uint256",
          "name": "expiryDate",
          "type": "uint256"
        }
      ],
      "name": "registerGifticon",
      "outputs": [],
      "stateMutability": "payable",
      "type": "function"
    },
    {
      "inputs": [],
      "name": "renounceOwnership",
      "outputs": [],
      "stateMutability": "nonpayable",
      "type": "function"
    },
    {
      "inputs": [
        {
          "internalType": "uint256",
          "name": "tokenId",
          "type": "uint256"
        }
      ],
      "name": "reportFraud",
      "outputs": [],
      "stateMutability": "nonpayable",
      "type": "function"
    },
    {
      "inputs": [
        {
          "internalType": "address",
          "name": "from",
          "type": "address"
        },
        {
          "internalType": "address",
          "name": "to",
          "type": "address"
        },
        {
          "internalType": "uint256",
          "name": "tokenId",
          "type": "uint256"
        }
      ],
      "name": "safeTransferFrom",
      "outputs": [],
      "stateMutability": "nonpayable",
      "type": "function"
    },
    {
      "inputs": [
        {
          "internalType": "address",
          "name": "from",
          "type": "address"
        },
        {
          "internalType": "address",
          "name": "to",
          "type": "address"
        },
        {
          "internalType": "uint256",
          "name": "tokenId",
          "type": "uint256"
        },
        {
          "internalType": "bytes",
          "name": "data",
          "type": "bytes"
        }
      ],
      "name": "safeTransferFrom",
      "outputs": [],
      "stateMutability": "nonpayable",
      "type": "function"
    },
    {
      "inputs": [
        {
          "internalType": "address",
          "name": "operator",
          "type": "address"
        },
        {
          "internalType": "bool",
          "name": "approved",
          "type": "bool"
        }
      ],
      "name": "setApprovalForAll",
      "outputs": [],
      "stateMutability": "nonpayable",
      "type": "function"
    },
    {
      "inputs": [
        {
          "internalType": "bytes4",
          "name": "interfaceId",
          "type": "bytes4"
        }
      ],
      "name": "supportsInterface",
      "outputs": [
        {
          "internalType": "bool",
          "name": "",
          "type": "bool"
        }
      ],
      "stateMutability": "view",
      "type": "function"
    },
    {
      "inputs": [],
      "name": "symbol",
      "outputs": [
        {
          "internalType": "string",
          "name": "",
          "type": "string"
        }
      ],
      "stateMutability": "view",
      "type": "function"
    },
    {
      "inputs": [
        {
          "internalType": "uint256",
          "name": "tokenId",
          "type": "uint256"
        }
      ],
      "name": "tokenURI",
      "outputs": [
        {
          "internalType": "string",
          "name": "",
          "type": "string"
        }
      ],
      "stateMutability": "view",
      "type": "function"
    },
    {
      "inputs": [
        {
          "internalType": "address",
          "name": "from",
          "type": "address"
        },
        {
          "internalType": "address",
          "name": "to",
          "type": "address"
        },
        {
          "internalType": "uint256",
          "name": "tokenId",
          "type": "uint256"
        }
      ],
      "name": "transferFrom",
      "outputs": [],
      "stateMutability": "nonpayable",
      "type": "function"
    },
    {
      "inputs": [
        {
          "internalType": "address",
          "name": "newOwner",
          "type": "address"
        }
      ],
      "name": "transferOwnership",
      "outputs": [],
      "stateMutability": "nonpayable",
      "type": "function"
    },
    {
      "inputs": [],
      "name": "withdraw",
      "outputs": [],
      "stateMutability": "nonpayable",
      "type": "function"
    }
  ],
  "bytecode": "0x608060405234801561001057600080fd5b50336040518060400160405280600b81526020017f4769667469636f6e4e46540000000000000000000000000000000000000000008152506040518060400160405280600381526020017f4746540000000000000000000000000000000000000000000000000000000000815250816000908161008d919061043d565b50806001908161009d919061043d565b505050600073ffffffffffffffffffffffffffffffffffffffff168173ffffffffffffffffffffffffffffffffffffffff16036101125760006040517f1e4fbdf70000000000000000000000000000000000000000000000000000000081526004016101099190610550565b60405180910390fd5b6101218161012760201b60201c565b5061056b565b6000600760009054906101000a900473ffffffffffffffffffffffffffffffffffffffff16905081600760006101000a81548173ffffffffffffffffffffffffffffffffffffffff021916908373ffffffffffffffffffffffffffffffffffffffff1602179055508173ffffffffffffffffffffffffffffffffffffffff168173ffffffffffffffffffffffffffffffffffffffff167f8be0079c531659141344cd1fd0a4f28419497f9722a3daafe3b4186f6b6457e060405160405180910390a35050565b600081519050919050565b7f4e487b7100000000000000000000000000000000000000000000000000000000600052604160045260246000fd5b7f4e487b7100000000000000000000000000000000000000000000000000000000600052602260045260246000fd5b6000600282049050600182168061026e57607f821691505b60208210810361028157610280610227565b5b50919050565b60008190508160005260206000209050919050565b60006020601f8301049050919050565b600082821b905092915050565b6000600883026102e97fffffffffffffffffffffffffffffffffffffffffffffffffffffffffffffffff826102ac565b6102f386836102ac565b95508019841693508086168417925050509392505050565b6000819050919050565b6000819050919050565b600061033a6103356103308461030b565b610315565b61030b565b9050919050565b6000819050919050565b6103548361031f565b61036861036082610341565b8484546102b9565b825550505050565b600090565b61037d610370565b61038881848461034b565b505050565b5b818110156103ac576103a1600082610375565b60018101905061038e565b5050565b601f8211156103f1576103c281610287565b6103cb8461029c565b810160208510156103da578190505b6103ee6103e68561029c565b83018261038d565b50505b505050565b600082821c905092915050565b6000610414600019846008026103f6565b1980831691505092915050565b600061042d8383610403565b9150826002028217905092915050565b610446826101ed565b67ffffffffffffffff81111561045f5761045e6101f8565b5b6104698254610256565b6104748282856103b0565b600060209050601f8311600181146104a75760008415610495578287015190505b61049f8582610421565b865550610507565b601f1984166104b586610287565b60005b828110156104dd578489015182556001820191506020850194506020810190506104b8565b868310156104fa57848901516104f6601f891682610403565b8355505b6001600288020188555050505b505050505050565b600073ffffffffffffffffffffffffffffffffffffffff82169050919050565b600061053a8261050f565b9050919050565b61054a8161052f565b82525050565b60006020820190506105656000830184610541565b92915050565b6137418061057a6000396000f3fe6080604052600436106101665760003560e01c806375794a3c116100d1578063c87b56dd1161008a578063ea69236c11610064578063ea69236c1461052b578063ec6925a71461056c578063f2fde38b14610597578063f9cca7f3146105c057610166565b8063c87b56dd14610488578063cab3990f146104c5578063e985e9c5146104ee57610166565b806375794a3c146103995780638da5cb5b146103c457806395b359d4146103ef57806395d89b411461040b578063a22cb46514610436578063b88d4fde1461045f57610166565b80633ccfd60b116101235780633ccfd60b1461029f57806342842e0e146102b65780636352211e146102df5780636de0de7e1461031c57806370a0823114610345578063715018a61461038257610166565b806301ffc9a71461016b57806306fdde03146101a8578063081812fc146101d3578063095ea7b314610210578063150b7a021461023957806323b872dd14610276575b600080fd5b34801561017757600080fd5b50610192600480360381019061018d91906125f3565b6105e9565b60405161019f919061263b565b60405180910390f35b3480156101b457600080fd5b506101bd61064a565b6040516101ca91906126e6565b60405180910390f35b3480156101df57600080fd5b506101fa60048036038101906101f5919061273e565b6106dc565b60405161020791906127ac565b60405180910390f35b34801561021c57600080fd5b50610237600480360381019061023291906127f3565b6106f8565b005b34801561024557600080fd5b50610260600480360381019061025b9190612898565b61070e565b60405161026d919061292f565b60405180910390f35b34801561028257600080fd5b5061029d6004803603810190610298919061294a565b610723565b005b3480156102ab57600080fd5b506102b4610825565b005b3480156102c257600080fd5b506102dd60048036038101906102d8919061294a565b61087d565b005b3480156102eb57600080fd5b506103066004803603810190610301919061273e565b61089d565b60405161031391906127ac565b60405180910390f35b34801561032857600080fd5b50610343600480360381019061033e919061273e565b6108af565b005b34801561035157600080fd5b5061036c6004803603810190610367919061299d565b610adb565b60405161037991906129d9565b60405180910390f35b34801561038e57600080fd5b50610397610b95565b005b3480156103a557600080fd5b506103ae610ba9565b6040516103bb91906129d9565b60405180910390f35b3480156103d057600080fd5b506103d9610baf565b6040516103e691906127ac565b60405180910390f35b61040960048036038101906104049190612b24565b610bd9565b005b34801561041757600080fd5b50610420610dae565b60405161042d91906126e6565b60405180910390f35b34801561044257600080fd5b5061045d60048036038101906104589190612bdb565b610e40565b005b34801561046b57600080fd5b5061048660048036038101906104819190612cbc565b610e56565b005b34801561049457600080fd5b506104af60048036038101906104aa919061273e565b610e7b565b6040516104bc91906126e6565b60405180910390f35b3480156104d157600080fd5b506104ec60048036038101906104e7919061273e565b610f8e565b005b3480156104fa57600080fd5b5061051560048036038101906105109190612d3f565b611133565b604051610522919061263b565b60405180910390f35b34801561053757600080fd5b50610552600480360381019061054d919061273e565b6111c7565b604051610563959493929190612df6565b60405180910390f35b34801561057857600080fd5b506105816112b2565b60405161058e91906129d9565b60405180910390f35b3480156105a357600080fd5b506105be60048036038101906105b9919061299d565b6112be565b005b3480156105cc57600080fd5b506105e760048036038101906105e2919061273e565b611344565b005b6000634906490660e01b7bffffffffffffffffffffffffffffffffffffffffffffffffffffffff1916827bffffffffffffffffffffffffffffffffffffffffffffffffffffffff191614806106435750610642826114d2565b5b9050919050565b60606000805461065990612e7f565b80601f016020809104026020016040519081016040528092919081815260200182805461068590612e7f565b80156106d25780601f106106a7576101008083540402835291602001916106d2565b820191906000526020600020905b8154815290600101906020018083116106b557829003601f168201915b5050505050905090565b60006106e7826115b4565b506106f18261163c565b9050919050565b61070a8282610705611679565b611681565b5050565b600063150b7a0260e01b905095945050505050565b600073ffffffffffffffffffffffffffffffffffffffff168273ffffffffffffffffffffffffffffffffffffffff16036107955760006040517f64a0ae9200000000000000000000000000000000000000000000000000000000815260040161078c91906127ac565b60405180910390fd5b60006107a983836107a4611679565b611693565b90508373ffffffffffffffffffffffffffffffffffffffff168173ffffffffffffffffffffffffffffffffffffffff161461081f578382826040517f64283d7b00000000000000000000000000000000000000000000000000000000815260040161081693929190612eb0565b60405180910390fd5b50505050565b61082d6118ad565b610835610baf565b73ffffffffffffffffffffffffffffffffffffffff166108fc479081150290604051600060405180830381858888f1935050505015801561087a573d6000803e3d6000fd5b50565b61089883838360405180602001604052806000815250610e56565b505050565b60006108a8826115b4565b9050919050565b60006009600083815260200190815260200160002090503373ffffffffffffffffffffffffffffffffffffffff168160000160009054906101000a900473ffffffffffffffffffffffffffffffffffffffff1673ffffffffffffffffffffffffffffffffffffffff1614610958576040517f08c379a000000000000000000000000000000000000000000000000000000000815260040161094f90612f33565b60405180910390fd5b3373ffffffffffffffffffffffffffffffffffffffff166109788361089d565b73ffffffffffffffffffffffffffffffffffffffff16146109ce576040517f08c379a00000000000000000000000000000000000000000000000000000000081526004016109c590612f9f565b60405180910390fd5b600060028111156109e2576109e1612d7f565b5b8160030160009054906101000a900460ff166002811115610a0657610a05612d7f565b5b14610a46576040517f08c379a0000000000000000000000000000000000000000000000000000000008152600401610a3d9061300b565b60405180910390fd5b6000816001015490506000826001018190555060028260030160006101000a81548160ff02191690836002811115610a8157610a80612d7f565b5b0217905550610a8f83611934565b3373ffffffffffffffffffffffffffffffffffffffff166108fc829081150290604051600060405180830381858888f19350505050158015610ad5573d6000803e3d6000fd5b50505050565b60008073ffffffffffffffffffffffffffffffffffffffff168273ffffffffffffffffffffffffffffffffffffffff1603610b4e5760006040517f89c62b64000000000000000000000000000000000000000000000000000000008152600401610b4591906127ac565b60405180910390fd5b600360008373ffffffffffffffffffffffffffffffffffffffff1673ffffffffffffffffffffffffffffffffffffffff168152602001908152602001600020549050919050565b610b9d6118ad565b610ba760006119ba565b565b60085481565b6000600760009054906101000a900473ffffffffffffffffffffffffffffffffffffffff16905090565b67016345785d8a00003414610c23576040517f08c379a0000000000000000000000000000000000000000000000000000000008152600401610c1a90613077565b60405180910390fd5b600060086000815480929190610c38906130c6565b919050559050610c483382611a80565b610c528184611b79565b6040518060a001604052803373ffffffffffffffffffffffffffffffffffffffff16815260200134815260200185815260200160006002811115610c9957610c98612d7f565b5b8152602001838152506009600083815260200190815260200160002060008201518160000160006101000a81548173ffffffffffffffffffffffffffffffffffffffff021916908373ffffffffffffffffffffffffffffffffffffffff160217905550602082015181600101556040820151816002019081610d1b91906132ba565b5060608201518160030160006101000a81548160ff02191690836002811115610d4757610d46612d7f565b5b0217905550608082015181600401559050503373ffffffffffffffffffffffffffffffffffffffff16817fb09579c55c46ad8519994dbc8b3d3c7ff0dd4d5a735f46c2eba49e828da5c21a86604051610da091906126e6565b60405180910390a350505050565b606060018054610dbd90612e7f565b80601f0160208091040260200160405190810160405280929190818152602001828054610de990612e7f565b8015610e365780601f10610e0b57610100808354040283529160200191610e36565b820191906000526020600020905b815481529060010190602001808311610e1957829003601f168201915b5050505050905090565b610e52610e4b611679565b8383611bd5565b5050565b610e61848484610723565b610e75610e6c611679565b85858585611d44565b50505050565b6060610e86826115b4565b506000600660008481526020019081526020016000208054610ea790612e7f565b80601f0160208091040260200160405190810160405280929190818152602001828054610ed390612e7f565b8015610f205780601f10610ef557610100808354040283529160200191610f20565b820191906000526020600020905b815481529060010190602001808311610f0357829003601f168201915b505050505090506000610f31611ef5565b90506000815103610f46578192505050610f89565b600082511115610f7b578082604051602001610f639291906133c8565b60405160208183030381529060405292505050610f89565b610f8484611f0c565b925050505b919050565b600060096000838152602001908152602001600020905060016002811115610fb957610fb8612d7f565b5b8160030160009054906101000a900460ff166002811115610fdd57610fdc612d7f565b5b1461101d576040517f08c379a000000000000000000000000000000000000000000000000000000000815260040161101490613438565b60405180910390fd5b6201518081600401546110309190613458565b421115611072576040517f08c379a0000000000000000000000000000000000000000000000000000000008152600401611069906134d8565b60405180910390fd5b60028160030160006101000a81548160ff0219169083600281111561109a57611099612d7f565b5b0217905550600081600101549050600082600101819055503373ffffffffffffffffffffffffffffffffffffffff16837f519ba9a00e84000cf73eb4dead0e2e04a983f1e23fdaf9cdefe13cff4883c55160405160405180910390a3827f8cde5670f6ee74478a4d7a5073596874894ea932ab8cc9c2ee3e0ae61c42e4ca8260405161112691906129d9565b60405180910390a2505050565b6000600560008473ffffffffffffffffffffffffffffffffffffffff1673ffffffffffffffffffffffffffffffffffffffff16815260200190815260200160002060008373ffffffffffffffffffffffffffffffffffffffff1673ffffffffffffffffffffffffffffffffffffffff16815260200190815260200160002060009054906101000a900460ff16905092915050565b60096020528060005260406000206000915090508060000160009054906101000a900473ffffffffffffffffffffffffffffffffffffffff169080600101549080600201805461121690612e7f565b80601f016020809104026020016040519081016040528092919081815260200182805461124290612e7f565b801561128f5780601f106112645761010080835404028352916020019161128f565b820191906000526020600020905b81548152906001019060200180831161127257829003601f168201915b5050505050908060030160009054906101000a900460ff16908060040154905085565b67016345785d8a000081565b6112c66118ad565b600073ffffffffffffffffffffffffffffffffffffffff168173ffffffffffffffffffffffffffffffffffffffff16036113385760006040517f1e4fbdf700000000000000000000000000000000000000000000000000000000815260040161132f91906127ac565b60405180910390fd5b611341816119ba565b50565b3373ffffffffffffffffffffffffffffffffffffffff166113648261089d565b73ffffffffffffffffffffffffffffffffffffffff16146113ba576040517f08c379a00000000000000000000000000000000000000000000000000000000081526004016113b190613544565b60405180910390fd5b6000600960008381526020019081526020016000209050600060028111156113e5576113e4612d7f565b5b8160030160009054906101000a900460ff16600281111561140957611408612d7f565b5b14611449576040517f08c379a0000000000000000000000000000000000000000000000000000000008152600401611440906135b0565b60405180910390fd5b60018160030160006101000a81548160ff0219169083600281111561147157611470612d7f565b5b021790555042816004018190555061148a33308461087d565b3373ffffffffffffffffffffffffffffffffffffffff16827f5572c73fa9d731a77b8f543bcb1446b93f25682511bc350d4fd0cbbf2ac2b8f960405160405180910390a35050565b60007f80ac58cd000000000000000000000000000000000000000000000000000000007bffffffffffffffffffffffffffffffffffffffffffffffffffffffff1916827bffffffffffffffffffffffffffffffffffffffffffffffffffffffff1916148061159d57507f5b5e139f000000000000000000000000000000000000000000000000000000007bffffffffffffffffffffffffffffffffffffffffffffffffffffffff1916827bffffffffffffffffffffffffffffffffffffffffffffffffffffffff1916145b806115ad57506115ac82611f75565b5b9050919050565b6000806115c083611fdf565b9050600073ffffffffffffffffffffffffffffffffffffffff168173ffffffffffffffffffffffffffffffffffffffff160361163357826040517f7e27328900000000000000000000000000000000000000000000000000000000815260040161162a91906129d9565b60405180910390fd5b80915050919050565b60006004600083815260200190815260200160002060009054906101000a900473ffffffffffffffffffffffffffffffffffffffff169050919050565b600033905090565b61168e838383600161201c565b505050565b60008061169f84611fdf565b9050600073ffffffffffffffffffffffffffffffffffffffff168373ffffffffffffffffffffffffffffffffffffffff16146116e1576116e08184866121e1565b5b600073ffffffffffffffffffffffffffffffffffffffff168173ffffffffffffffffffffffffffffffffffffffff16146117725761172360008560008061201c565b6001600360008373ffffffffffffffffffffffffffffffffffffffff1673ffffffffffffffffffffffffffffffffffffffff168152602001908152602001600020600082825403925050819055505b600073ffffffffffffffffffffffffffffffffffffffff168573ffffffffffffffffffffffffffffffffffffffff16146117f5576001600360008773ffffffffffffffffffffffffffffffffffffffff1673ffffffffffffffffffffffffffffffffffffffff168152602001908152602001600020600082825401925050819055505b846002600086815260200190815260200160002060006101000a81548173ffffffffffffffffffffffffffffffffffffffff021916908373ffffffffffffffffffffffffffffffffffffffff160217905550838573ffffffffffffffffffffffffffffffffffffffff168273ffffffffffffffffffffffffffffffffffffffff167fddf252ad1be2c89b69c2b068fc378daa952ba7f163c4a11628f55a4df523b3ef60405160405180910390a4809150509392505050565b6118b5611679565b73ffffffffffffffffffffffffffffffffffffffff166118d3610baf565b73ffffffffffffffffffffffffffffffffffffffff1614611932576118f6611679565b6040517f118cdaa700000000000000000000000000000000000000000000000000000000815260040161192991906127ac565b60405180910390fd5b565b60006119436000836000611693565b9050600073ffffffffffffffffffffffffffffffffffffffff168173ffffffffffffffffffffffffffffffffffffffff16036119b657816040517f7e2732890000000000000000000000000000000000000000000000000000000081526004016119ad91906129d9565b60405180910390fd5b5050565b6000600760009054906101000a900473ffffffffffffffffffffffffffffffffffffffff16905081600760006101000a81548173ffffffffffffffffffffffffffffffffffffffff021916908373ffffffffffffffffffffffffffffffffffffffff1602179055508173ffffffffffffffffffffffffffffffffffffffff168173ffffffffffffffffffffffffffffffffffffffff167f8be0079c531659141344cd1fd0a4f28419497f9722a3daafe3b4186f6b6457e060405160405180910390a35050565b600073ffffffffffffffffffffffffffffffffffffffff168273ffffffffffffffffffffffffffffffffffffffff1603611af25760006040517f64a0ae92000000000000000000000000000000000000000000000000000000008152600401611ae991906127ac565b60405180910390fd5b6000611b0083836000611693565b9050600073ffffffffffffffffffffffffffffffffffffffff168173ffffffffffffffffffffffffffffffffffffffff1614611b745760006040517f73c6ac6e000000000000000000000000000000000000000000000000000000008152600401611b6b91906127ac565b60405180910390fd5b505050565b80600660008481526020019081526020016000209081611b9991906132ba565b507ff8e1a15aba9398e019f0b49df1a4fde98ee17ae345cb5f6b5e2c27f5033e8ce782604051611bc991906129d9565b60405180910390a15050565b600073ffffffffffffffffffffffffffffffffffffffff168273ffffffffffffffffffffffffffffffffffffffff1603611c4657816040517f5b08ba18000000000000000000000000000000000000000000000000000000008152600401611c3d91906127ac565b60405180910390fd5b80600560008573ffffffffffffffffffffffffffffffffffffffff1673ffffffffffffffffffffffffffffffffffffffff16815260200190815260200160002060008473ffffffffffffffffffffffffffffffffffffffff1673ffffffffffffffffffffffffffffffffffffffff16815260200190815260200160002060006101000a81548160ff0219169083151502179055508173ffffffffffffffffffffffffffffffffffffffff168373ffffffffffffffffffffffffffffffffffffffff167f17307eab39ab6107e8899845ad3d59bd9653f200f220920489ca2b5937696c3183604051611d37919061263b565b60405180910390a3505050565b60008373ffffffffffffffffffffffffffffffffffffffff163b1115611eee578273ffffffffffffffffffffffffffffffffffffffff1663150b7a02868685856040518563ffffffff1660e01b8152600401611da39493929190613625565b6020604051808303816000875af1925050508015611ddf57506040513d601f19601f82011682018060405250810190611ddc9190613686565b60015b611e63573d8060008114611e0f576040519150601f19603f3d011682016040523d82523d6000602084013e611e14565b606091505b506000815103611e5b57836040517f64a0ae92000000000000000000000000000000000000000000000000000000008152600401611e5291906127ac565b60405180910390fd5b805181602001fd5b63150b7a0260e01b7bffffffffffffffffffffffffffffffffffffffffffffffffffffffff1916817bffffffffffffffffffffffffffffffffffffffffffffffffffffffff191614611eec57836040517f64a0ae92000000000000000000000000000000000000000000000000000000008152600401611ee391906127ac565b60405180910390fd5b505b5050505050565b606060405180602001604052806000815250905090565b6060611f17826115b4565b506000611f22611ef5565b90506000815111611f425760405180602001604052806000815250611f6d565b80611f4c846122a5565b604051602001611f5d9291906133c8565b6040516020818303038152906040525b915050919050565b60007f01ffc9a7000000000000000000000000000000000000000000000000000000007bffffffffffffffffffffffffffffffffffffffffffffffffffffffff1916827bffffffffffffffffffffffffffffffffffffffffffffffffffffffff1916149050919050565b60006002600083815260200190815260200160002060009054906101000a900473ffffffffffffffffffffffffffffffffffffffff169050919050565b80806120555750600073ffffffffffffffffffffffffffffffffffffffff168273ffffffffffffffffffffffffffffffffffffffff1614155b15612189576000612065846115b4565b9050600073ffffffffffffffffffffffffffffffffffffffff168373ffffffffffffffffffffffffffffffffffffffff16141580156120d057508273ffffffffffffffffffffffffffffffffffffffff168173ffffffffffffffffffffffffffffffffffffffff1614155b80156120e357506120e18184611133565b155b1561212557826040517fa9fbf51f00000000000000000000000000000000000000000000000000000000815260040161211c91906127ac565b60405180910390fd5b811561218757838573ffffffffffffffffffffffffffffffffffffffff168273ffffffffffffffffffffffffffffffffffffffff167f8c5be1e5ebec7d5bd14f71427d1e84f3dd0314c0f7b2291e5b200ac8c7c3b92560405160405180910390a45b505b836004600085815260200190815260200160002060006101000a81548173ffffffffffffffffffffffffffffffffffffffff021916908373ffffffffffffffffffffffffffffffffffffffff16021790555050505050565b6121ec838383612373565b6122a057600073ffffffffffffffffffffffffffffffffffffffff168373ffffffffffffffffffffffffffffffffffffffff160361226157806040517f7e27328900000000000000000000000000000000000000000000000000000000815260040161225891906129d9565b60405180910390fd5b81816040517f177e802f0000000000000000000000000000000000000000000000000000000081526004016122979291906136b3565b60405180910390fd5b505050565b6060600060016122b484612434565b01905060008167ffffffffffffffff8111156122d3576122d26129f9565b5b6040519080825280601f01601f1916602001820160405280156123055781602001600182028036833780820191505090505b509050600082602001820190505b600115612368578080600190039150507f3031323334353637383961626364656600000000000000000000000000000000600a86061a8153600a858161235c5761235b6136dc565b5b04945060008503612313575b819350505050919050565b60008073ffffffffffffffffffffffffffffffffffffffff168373ffffffffffffffffffffffffffffffffffffffff161415801561242b57508273ffffffffffffffffffffffffffffffffffffffff168473ffffffffffffffffffffffffffffffffffffffff1614806123ec57506123eb8484611133565b5b8061242a57508273ffffffffffffffffffffffffffffffffffffffff166124128361163c565b73ffffffffffffffffffffffffffffffffffffffff16145b5b90509392505050565b600080600090507a184f03e93ff9f4daa797ed6e38ed64bf6a1f0100000000000000008310612492577a184f03e93ff9f4daa797ed6e38ed64bf6a1f0100000000000000008381612488576124876136dc565b5b0492506040810190505b6d04ee2d6d415b85acef810000000083106124cf576d04ee2d6d415b85acef810000000083816124c5576124c46136dc565b5b0492506020810190505b662386f26fc1000083106124fe57662386f26fc1000083816124f4576124f36136dc565b5b0492506010810190505b6305f5e1008310612527576305f5e100838161251d5761251c6136dc565b5b0492506008810190505b612710831061254c576127108381612542576125416136dc565b5b0492506004810190505b6064831061256f5760648381612565576125646136dc565b5b0492506002810190505b600a831061257e576001810190505b80915050919050565b6000604051905090565b600080fd5b600080fd5b60007fffffffff0000000000000000000000000000000000000000000000000000000082169050919050565b6125d08161259b565b81146125db57600080fd5b50565b6000813590506125ed816125c7565b92915050565b60006020828403121561260957612608612591565b5b6000612617848285016125de565b91505092915050565b60008115159050919050565b61263581612620565b82525050565b6000602082019050612650600083018461262c565b92915050565b600081519050919050565b600082825260208201905092915050565b60005b83811015612690578082015181840152602081019050612675565b60008484015250505050565b6000601f19601f8301169050919050565b60006126b882612656565b6126c28185612661565b93506126d2818560208601612672565b6126db8161269c565b840191505092915050565b6000602082019050818103600083015261270081846126ad565b905092915050565b6000819050919050565b61271b81612708565b811461272657600080fd5b50565b60008135905061273881612712565b92915050565b60006020828403121561275457612753612591565b5b600061276284828501612729565b91505092915050565b600073ffffffffffffffffffffffffffffffffffffffff82169050919050565b60006127968261276b565b9050919050565b6127a68161278b565b82525050565b60006020820190506127c1600083018461279d565b92915050565b6127d08161278b565b81146127db57600080fd5b50565b6000813590506127ed816127c7565b92915050565b6000806040838503121561280a57612809612591565b5b6000612818858286016127de565b925050602061282985828601612729565b9150509250929050565b600080fd5b600080fd5b600080fd5b60008083601f84011261285857612857612833565b5b8235905067ffffffffffffffff81111561287557612874612838565b5b6020830191508360018202830111156128915761289061283d565b5b9250929050565b6000806000806000608086880312156128b4576128b3612591565b5b60006128c2888289016127de565b95505060206128d3888289016127de565b94505060406128e488828901612729565b935050606086013567ffffffffffffffff81111561290557612904612596565b5b61291188828901612842565b92509250509295509295909350565b6129298161259b565b82525050565b60006020820190506129446000830184612920565b92915050565b60008060006060848603121561296357612962612591565b5b6000612971868287016127de565b9350506020612982868287016127de565b925050604061299386828701612729565b9150509250925092565b6000602082840312156129b3576129b2612591565b5b60006129c1848285016127de565b91505092915050565b6129d381612708565b82525050565b60006020820190506129ee60008301846129ca565b92915050565b600080fd5b7f4e487b7100000000000000000000000000000000000000000000000000000000600052604160045260246000fd5b612a318261269c565b810181811067ffffffffffffffff82111715612a5057612a4f6129f9565b5b80604052505050565b6000612a63612587565b9050612a6f8282612a28565b919050565b600067ffffffffffffffff821115612a8f57612a8e6129f9565b5b612a988261269c565b9050602081019050919050565b82818337600083830152505050565b6000612ac7612ac284612a74565b612a59565b905082815260208101848484011115612ae357612ae26129f4565b5b612aee848285612aa5565b509392505050565b600082601f830112612b0b57612b0a612833565b5b8135612b1b848260208601612ab4565b91505092915050565b600080600060608486031215612b3d57612b3c612591565b5b600084013567ffffffffffffffff811115612b5b57612b5a612596565b5b612b6786828701612af6565b935050602084013567ffffffffffffffff811115612b8857612b87612596565b5b612b9486828701612af6565b9250506040612ba586828701612729565b9150509250925092565b612bb881612620565b8114612bc357600080fd5b50565b600081359050612bd581612baf565b92915050565b60008060408385031215612bf257612bf1612591565b5b6000612c00858286016127de565b9250506020612c1185828601612bc6565b9150509250929050565b600067ffffffffffffffff821115612c3657612c356129f9565b5b612c3f8261269c565b9050602081019050919050565b6000612c5f612c5a84612c1b565b612a59565b905082815260208101848484011115612c7b57612c7a6129f4565b5b612c86848285612aa5565b509392505050565b600082601f830112612ca357612ca2612833565b5b8135612cb3848260208601612c4c565b91505092915050565b60008060008060808587031215612cd657612cd5612591565b5b6000612ce4878288016127de565b9450506020612cf5878288016127de565b9350506040612d0687828801612729565b925050606085013567ffffffffffffffff811115612d2757612d26612596565b5b612d3387828801612c8e565b91505092959194509250565b60008060408385031215612d5657612d55612591565b5b6000612d64858286016127de565b9250506020612d75858286016127de565b9150509250929050565b7f4e487b7100000000000000000000000000000000000000000000000000000000600052602160045260246000fd5b60038110612dbf57612dbe612d7f565b5b50565b6000819050612dd082612dae565b919050565b6000612de082612dc2565b9050919050565b612df081612dd5565b82525050565b600060a082019050612e0b600083018861279d565b612e1860208301876129ca565b8181036040830152612e2a81866126ad565b9050612e396060830185612de7565b612e4660808301846129ca565b9695505050505050565b7f4e487b7100000000000000000000000000000000000000000000000000000000600052602260045260246000fd5b60006002820490506001821680612e9757607f821691505b602082108103612eaa57612ea9612e50565b5b50919050565b6000606082019050612ec5600083018661279d565b612ed260208301856129ca565b612edf604083018461279d565b949350505050565b7f4e6f74206f726967696e616c206f776e65720000000000000000000000000000600082015250565b6000612f1d601283612661565b9150612f2882612ee7565b602082019050919050565b60006020820190508181036000830152612f4c81612f10565b9050919050565b7f596f75206d757374206f776e20746865204e4654000000000000000000000000600082015250565b6000612f89601483612661565b9150612f9482612f53565b602082019050919050565b60006020820190508181036000830152612fb881612f7c565b9050919050565b7f4e6f7420726566756e6461626c65000000000000000000000000000000000000600082015250565b6000612ff5600e83612661565b915061300082612fbf565b602082019050919050565b6000602082019050818103600083015261302481612fe8565b9050919050565b7f496e636f7272656374206465706f736974000000000000000000000000000000600082015250565b6000613061601183612661565b915061306c8261302b565b602082019050919050565b6000602082019050818103600083015261309081613054565b9050919050565b7f4e487b7100000000000000000000000000000000000000000000000000000000600052601160045260246000fd5b60006130d182612708565b91507fffffffffffffffffffffffffffffffffffffffffffffffffffffffffffffffff820361310357613102613097565b5b600182019050919050565b60008190508160005260206000209050919050565b60006020601f8301049050919050565b600082821b905092915050565b6000600883026131707fffffffffffffffffffffffffffffffffffffffffffffffffffffffffffffffff82613133565b61317a8683613133565b95508019841693508086168417925050509392505050565b6000819050919050565b60006131b76131b26131ad84612708565b613192565b612708565b9050919050565b6000819050919050565b6131d18361319c565b6131e56131dd826131be565b848454613140565b825550505050565b600090565b6131fa6131ed565b6132058184846131c8565b505050565b5b818110156132295761321e6000826131f2565b60018101905061320b565b5050565b601f82111561326e5761323f8161310e565b61324884613123565b81016020851015613257578190505b61326b61326385613123565b83018261320a565b50505b505050565b600082821c905092915050565b600061329160001984600802613273565b1980831691505092915050565b60006132aa8383613280565b9150826002028217905092915050565b6132c382612656565b67ffffffffffffffff8111156132dc576132db6129f9565b5b6132e68254612e7f565b6132f182828561322d565b600060209050601f8311600181146133245760008415613312578287015190505b61331c858261329e565b865550613384565b601f1984166133328661310e565b60005b8281101561335a57848901518255600182019150602085019450602081019050613335565b868310156133775784890151613373601f891682613280565b8355505b6001600288020188555050505b505050505050565b600081905092915050565b60006133a282612656565b6133ac818561338c565b93506133bc818560208601612672565b80840191505092915050565b60006133d48285613397565b91506133e08284613397565b91508190509392505050565b7f4e6f742072656465656d61626c65000000000000000000000000000000000000600082015250565b6000613422600e83612661565b915061342d826133ec565b602082019050919050565b6000602082019050818103600083015261345181613415565b9050919050565b600061346382612708565b915061346e83612708565b925082820190508082111561348657613485613097565b5b92915050565b7f5265706f72742077696e646f7720636c6f736564000000000000000000000000600082015250565b60006134c2601483612661565b91506134cd8261348c565b602082019050919050565b600060208201905081810360008301526134f1816134b5565b9050919050565b7f4e6f7420746865206f776e657200000000000000000000000000000000000000600082015250565b600061352e600d83612661565b9150613539826134f8565b602082019050919050565b6000602082019050818103600083015261355d81613521565b9050919050565b7f416c72656164792072656465656d6564206f722070656e616c697a6564000000600082015250565b600061359a601d83612661565b91506135a582613564565b602082019050919050565b600060208201905081810360008301526135c98161358d565b9050919050565b600081519050919050565b600082825260208201905092915050565b60006135f7826135d0565b61360181856135db565b9350613611818560208601612672565b61361a8161269c565b840191505092915050565b600060808201905061363a600083018761279d565b613647602083018661279d565b61365460408301856129ca565b818103606083015261366681846135ec565b905095945050505050565b600081519050613680816125c7565b92915050565b60006020828403121561369c5761369b612591565b5b60006136aa84828501613671565b91505092915050565b60006040820190506136c8600083018561279d565b6136d560208301846129ca565b9392505050565b7f4e487b7100000000000000000000000000000000000000000000000000000000600052601260045260246000fdfea26469706673582212202177243b794ede08b1aac5caa5da98a882f5bb3187d35a44f172297e2be29b4364736f6c634300081c0033",
  "linkReferences": {},
  "deployedLinkReferences": {}
}