{
  "_format": "hh-sol-artifact-1",
  "contractName": "GifticonMarketplace",
  "sourceName": "contracts/GifticonMarketPlace.sol",
  "abi": [
    {
      "inputs": [
        {
          "internalType": "address",
          "name": "_gifticonNFT",
          "type": "address"
        }
      ],
      "stateMutability": "nonpayable",
      "type": "constructor"
    },
    {
      "inputs": [
        {
          "internalType": "address",
          "name": "owner",
          "type": "address"
        }
      ],
      "name": "OwnableInvalidOwner",
      "type": "error"
    },
    {
      "inputs": [
        {
          "internalType": "address",
          "name": "account",
          "type": "address"
        }
      ],
      "name": "OwnableUnauthorizedAccount",
      "type": "error"
    },
    {
      "inputs": [],
      "name": "ReentrancyGuardReentrantCall",
      "type": "error"
    },
    {
      "anonymous": false,
      "inputs": [
        {
          "indexed": true,
          "internalType": "uint256",
          "name": "tokenId",
          "type": "uint256"
        }
      ],
      "name": "ItemCanceled",
      "type": "event"
    },
    {
      "anonymous": false,
      "inputs": [
        {
          "indexed": true,
          "internalType": "uint256",
          "name": "tokenId",
          "type": "uint256"
        },
        {
          "indexed": true,
          "internalType": "address",
          "name": "seller",
          "type": "address"
        },
        {
          "indexed": false,
          "internalType": "uint256",
          "name": "price",
          "type": "uint256"
        }
      ],
      "name": "ItemListed",
      "type": "event"
    },
    {
      "anonymous": false,
      "inputs": [
        {
          "indexed": true,
          "internalType": "uint256",
          "name": "tokenId",
          "type": "uint256"
        },
        {
          "indexed": true,
          "internalType": "address",
          "name": "buyer",
          "type": "address"
        },
        {
          "indexed": false,
          "internalType": "uint256",
          "name": "price",
          "type": "uint256"
        }
      ],
      "name": "ItemSold",
      "type": "event"
    },
    {
      "anonymous": false,
      "inputs": [
        {
          "indexed": true,
          "internalType": "address",
          "name": "previousOwner",
          "type": "address"
        },
        {
          "indexed": true,
          "internalType": "address",
          "name": "newOwner",
          "type": "address"
        }
      ],
      "name": "OwnershipTransferred",
      "type": "event"
    },
    {
      "inputs": [
        {
          "internalType": "uint256",
          "name": "tokenId",
          "type": "uint256"
        }
      ],
      "name": "buyItem",
      "outputs": [],
      "stateMutability": "payable",
      "type": "function"
    },
    {
      "inputs": [
        {
          "internalType": "uint256",
          "name": "tokenId",
          "type": "uint256"
        }
      ],
      "name": "cancelListing",
      "outputs": [],
      "stateMutability": "nonpayable",
      "type": "function"
    },
    {
      "inputs": [],
      "name": "getListings",
      "outputs": [
        {
          "internalType": "uint256[]",
          "name": "",
          "type": "uint256[]"
        }
      ],
      "stateMutability": "view",
      "type": "function"
    },
    {
      "inputs": [],
      "name": "gifticonNFT",
      "outputs": [
        {
          "internalType": "contract IGifticonNFT",
          "name": "",
          "type": "address"
        }
      ],
      "stateMutability": "view",
      "type": "function"
    },
    {
      "inputs": [
        {
          "internalType": "uint256",
          "name": "tokenId",
          "type": "uint256"
        },
        {
          "internalType": "uint256",
          "name": "price",
          "type": "uint256"
        }
      ],
      "name": "listItem",
      "outputs": [],
      "stateMutability": "nonpayable",
      "type": "function"
    },
    {
      "inputs": [
        {
          "internalType": "uint256",
          "name": "",
          "type": "uint256"
        }
      ],
      "name": "listedTokenIds",
      "outputs": [
        {
          "internalType": "uint256",
          "name": "",
          "type": "uint256"
        }
      ],
      "stateMutability": "view",
      "type": "function"
    },
    {
      "inputs": [
        {
          "internalType": "uint256",
          "name": "",
          "type": "uint256"
        }
      ],
      "name": "listings",
      "outputs": [
        {
          "internalType": "address",
          "name": "seller",
          "type": "address"
        },
        {
          "internalType": "uint256",
          "name": "price",
          "type": "uint256"
        }
      ],
      "stateMutability": "view",
      "type": "function"
    },
    {
      "inputs": [],
      "name": "owner",
      "outputs": [
        {
          "internalType": "address",
          "name": "",
          "type": "address"
        }
      ],
      "stateMutability": "view",
      "type": "function"
    },
    {
      "inputs": [],
      "name": "renounceOwnership",
      "outputs": [],
      "stateMutability": "nonpayable",
      "type": "function"
    },
    {
      "inputs": [
        {
          "internalType": "address",
          "name": "newOwner",
          "type": "address"
        }
      ],
      "name": "transferOwnership",
      "outputs": [],
      "stateMutability": "nonpayable",
      "type": "function"
    },
    {
      "inputs": [],
      "name": "withdraw",
      "outputs": [],
      "stateMutability": "nonpayable",
      "type": "function"
    }
  ],
  "bytecode": "0x608060405234801561001057600080fd5b50604051611a6e380380611a6e8339818101604052810190610032919061022d565b336001600081905550600073ffffffffffffffffffffffffffffffffffffffff168173ffffffffffffffffffffffffffffffffffffffff16036100ad5760006040517f1e4fbdf70000000000000000000000000000000000000000000000000000000081526004016100a49190610269565b60405180910390fd5b6100bc8161010460201b60201c565b5080600260006101000a81548173ffffffffffffffffffffffffffffffffffffffff021916908373ffffffffffffffffffffffffffffffffffffffff16021790555050610284565b6000600160009054906101000a900473ffffffffffffffffffffffffffffffffffffffff16905081600160006101000a81548173ffffffffffffffffffffffffffffffffffffffff021916908373ffffffffffffffffffffffffffffffffffffffff1602179055508173ffffffffffffffffffffffffffffffffffffffff168173ffffffffffffffffffffffffffffffffffffffff167f8be0079c531659141344cd1fd0a4f28419497f9722a3daafe3b4186f6b6457e060405160405180910390a35050565b600080fd5b600073ffffffffffffffffffffffffffffffffffffffff82169050919050565b60006101fa826101cf565b9050919050565b61020a816101ef565b811461021557600080fd5b50565b60008151905061022781610201565b92915050565b600060208284031215610243576102426101ca565b5b600061025184828501610218565b91505092915050565b610263816101ef565b82525050565b600060208201905061027e600083018461025a565b92915050565b6117db806102936000396000f3fe60806040526004361061009c5760003560e01c80638da5cb5b116100645780638da5cb5b1461014c578063b6feadc814610177578063de74e57b146101b4578063e7fb74c7146101f2578063f1b2d6a31461020e578063f2fde38b146102395761009c565b8063305a67a8146100a15780633ccfd60b146100ca578063545510d6146100e1578063715018a61461010c578063883efa6714610123575b600080fd5b3480156100ad57600080fd5b506100c860048036038101906100c39190610ea2565b610262565b005b3480156100d657600080fd5b506100df6103d5565b005b3480156100ed57600080fd5b506100f661042d565b6040516101039190610f4e565b60405180910390f35b34801561011857600080fd5b50610121610453565b005b34801561012f57600080fd5b5061014a60048036038101906101459190610f69565b610467565b005b34801561015857600080fd5b506101616107d2565b60405161016e9190610fca565b60405180910390f35b34801561018357600080fd5b5061019e60048036038101906101999190610ea2565b6107fc565b6040516101ab9190610ff4565b60405180910390f35b3480156101c057600080fd5b506101db60048036038101906101d69190610ea2565b610820565b6040516101e992919061100f565b60405180910390f35b61020c60048036038101906102079190610ea2565b610864565b005b34801561021a57600080fd5b50610223610b0f565b60405161023091906110f6565b60405180910390f35b34801561024557600080fd5b50610260600480360381019061025b9190611144565b610b67565b005b6000600360008381526020019081526020016000206040518060400160405290816000820160009054906101000a900473ffffffffffffffffffffffffffffffffffffffff1673ffffffffffffffffffffffffffffffffffffffff1673ffffffffffffffffffffffffffffffffffffffff16815260200160018201548152505090503373ffffffffffffffffffffffffffffffffffffffff16816000015173ffffffffffffffffffffffffffffffffffffffff1614610356576040517f08c379a000000000000000000000000000000000000000000000000000000000815260040161034d906111ce565b60405180910390fd5b60036000838152602001908152602001600020600080820160006101000a81549073ffffffffffffffffffffffffffffffffffffffff0219169055600182016000905550506103a482610bed565b817fc488cd4b714d7cba0f629146d7651a71b310fdf6f2b70ed73bde9d78d46dbabe60405160405180910390a25050565b6103dd610cb3565b6103e56107d2565b73ffffffffffffffffffffffffffffffffffffffff166108fc479081150290604051600060405180830381858888f1935050505015801561042a573d6000803e3d6000fd5b50565b600260009054906101000a900473ffffffffffffffffffffffffffffffffffffffff1681565b61045b610cb3565b6104656000610d3a565b565b600081116104aa576040517f08c379a00000000000000000000000000000000000000000000000000000000081526004016104a19061123a565b60405180910390fd5b3373ffffffffffffffffffffffffffffffffffffffff16600260009054906101000a900473ffffffffffffffffffffffffffffffffffffffff1673ffffffffffffffffffffffffffffffffffffffff16636352211e846040518263ffffffff1660e01b815260040161051c9190610ff4565b602060405180830381865afa158015610539573d6000803e3d6000fd5b505050506040513d601f19601f8201168201806040525081019061055d919061126f565b73ffffffffffffffffffffffffffffffffffffffff16146105b3576040517f08c379a00000000000000000000000000000000000000000000000000000000081526004016105aa906112e8565b60405180910390fd5b6000600260009054906101000a900473ffffffffffffffffffffffffffffffffffffffff1673ffffffffffffffffffffffffffffffffffffffff1663ea69236c846040518263ffffffff1660e01b81526004016106109190610ff4565b600060405180830381865afa15801561062d573d6000803e3d6000fd5b505050506040513d6000823e3d601f19601f8201168201806040525081019061065691906114a3565b509350505050600060028111156106705761066f61153a565b5b8160028111156106835761068261153a565b5b146106c3576040517f08c379a00000000000000000000000000000000000000000000000000000000081526004016106ba906115b5565b60405180910390fd5b60405180604001604052803373ffffffffffffffffffffffffffffffffffffffff168152602001838152506003600085815260200190815260200160002060008201518160000160006101000a81548173ffffffffffffffffffffffffffffffffffffffff021916908373ffffffffffffffffffffffffffffffffffffffff1602179055506020820151816001015590505060048390806001815401808255809150506001900390600052602060002001600090919091909150553373ffffffffffffffffffffffffffffffffffffffff16837fc93edc6ee14cd6c0c2842099adfa8953b237dbdad304ba28e96dce8a7f2a828c846040516107c59190610ff4565b60405180910390a3505050565b6000600160009054906101000a900473ffffffffffffffffffffffffffffffffffffffff16905090565b6004818154811061080c57600080fd5b906000526020600020016000915090505481565b60036020528060005260406000206000915090508060000160009054906101000a900473ffffffffffffffffffffffffffffffffffffffff16908060010154905082565b61086c610e00565b6000600360008381526020019081526020016000206040518060400160405290816000820160009054906101000a900473ffffffffffffffffffffffffffffffffffffffff1673ffffffffffffffffffffffffffffffffffffffff1673ffffffffffffffffffffffffffffffffffffffff16815260200160018201548152505090506000816020015111610935576040517f08c379a000000000000000000000000000000000000000000000000000000000815260040161092c90611621565b60405180910390fd5b806020015134101561097c576040517f08c379a00000000000000000000000000000000000000000000000000000000081526004016109739061168d565b60405180910390fd5b60008160000151905060036000848152602001908152602001600020600080820160006101000a81549073ffffffffffffffffffffffffffffffffffffffff0219169055600182016000905550506109d383610bed565b600260009054906101000a900473ffffffffffffffffffffffffffffffffffffffff1673ffffffffffffffffffffffffffffffffffffffff166342842e0e8233866040518463ffffffff1660e01b8152600401610a32939291906116ad565b600060405180830381600087803b158015610a4c57600080fd5b505af1158015610a60573d6000803e3d6000fd5b505050508073ffffffffffffffffffffffffffffffffffffffff166108fc83602001519081150290604051600060405180830381858888f19350505050158015610aae573d6000803e3d6000fd5b503373ffffffffffffffffffffffffffffffffffffffff16837fa574c741071bb18f51fa88c17aeefec514bebf670ca22a3736fba6504ecbb7638460200151604051610afa9190610ff4565b60405180910390a35050610b0c610e46565b50565b60606004805480602002602001604051908101604052809291908181526020018280548015610b5d57602002820191906000526020600020905b815481526020019060010190808311610b49575b5050505050905090565b610b6f610cb3565b600073ffffffffffffffffffffffffffffffffffffffff168173ffffffffffffffffffffffffffffffffffffffff1603610be15760006040517f1e4fbdf7000000000000000000000000000000000000000000000000000000008152600401610bd89190610fca565b60405180910390fd5b610bea81610d3a565b50565b6000600480549050905060005b81811015610cae578260048281548110610c1757610c166116e4565b5b906000526020600020015403610ca1576004600183610c369190611742565b81548110610c4757610c466116e4565b5b906000526020600020015460048281548110610c6657610c656116e4565b5b90600052602060002001819055506004805480610c8657610c85611776565b5b60019003818190600052602060002001600090559055610cae565b8080600101915050610bfa565b505050565b610cbb610e50565b73ffffffffffffffffffffffffffffffffffffffff16610cd96107d2565b73ffffffffffffffffffffffffffffffffffffffff1614610d3857610cfc610e50565b6040517f118cdaa7000000000000000000000000000000000000000000000000000000008152600401610d2f9190610fca565b60405180910390fd5b565b6000600160009054906101000a900473ffffffffffffffffffffffffffffffffffffffff16905081600160006101000a81548173ffffffffffffffffffffffffffffffffffffffff021916908373ffffffffffffffffffffffffffffffffffffffff1602179055508173ffffffffffffffffffffffffffffffffffffffff168173ffffffffffffffffffffffffffffffffffffffff167f8be0079c531659141344cd1fd0a4f28419497f9722a3daafe3b4186f6b6457e060405160405180910390a35050565b600260005403610e3c576040517f3ee5aeb500000000000000000000000000000000000000000000000000000000815260040160405180910390fd5b6002600081905550565b6001600081905550565b600033905090565b6000604051905090565b600080fd5b600080fd5b6000819050919050565b610e7f81610e6c565b8114610e8a57600080fd5b50565b600081359050610e9c81610e76565b92915050565b600060208284031215610eb857610eb7610e62565b5b6000610ec684828501610e8d565b91505092915050565b600073ffffffffffffffffffffffffffffffffffffffff82169050919050565b6000819050919050565b6000610f14610f0f610f0a84610ecf565b610eef565b610ecf565b9050919050565b6000610f2682610ef9565b9050919050565b6000610f3882610f1b565b9050919050565b610f4881610f2d565b82525050565b6000602082019050610f636000830184610f3f565b92915050565b60008060408385031215610f8057610f7f610e62565b5b6000610f8e85828601610e8d565b9250506020610f9f85828601610e8d565b9150509250929050565b6000610fb482610ecf565b9050919050565b610fc481610fa9565b82525050565b6000602082019050610fdf6000830184610fbb565b92915050565b610fee81610e6c565b82525050565b60006020820190506110096000830184610fe5565b92915050565b60006040820190506110246000830185610fbb565b6110316020830184610fe5565b9392505050565b600081519050919050565b600082825260208201905092915050565b6000819050602082019050919050565b61106d81610e6c565b82525050565b600061107f8383611064565b60208301905092915050565b6000602082019050919050565b60006110a382611038565b6110ad8185611043565b93506110b883611054565b8060005b838110156110e95781516110d08882611073565b97506110db8361108b565b9250506001810190506110bc565b5085935050505092915050565b600060208201905081810360008301526111108184611098565b905092915050565b61112181610fa9565b811461112c57600080fd5b50565b60008135905061113e81611118565b92915050565b60006020828403121561115a57611159610e62565b5b60006111688482850161112f565b91505092915050565b600082825260208201905092915050565b7f4e6f74207468652073656c6c6572000000000000000000000000000000000000600082015250565b60006111b8600e83611171565b91506111c382611182565b602082019050919050565b600060208201905081810360008301526111e7816111ab565b9050919050565b7f5072696365206d7573742062652067726561746572207468616e203000000000600082015250565b6000611224601c83611171565b915061122f826111ee565b602082019050919050565b6000602082019050818103600083015261125381611217565b9050919050565b60008151905061126981611118565b92915050565b60006020828403121561128557611284610e62565b5b60006112938482850161125a565b91505092915050565b7f4e6f7420746865206f776e657200000000000000000000000000000000000000600082015250565b60006112d2600d83611171565b91506112dd8261129c565b602082019050919050565b60006020820190508181036000830152611301816112c5565b9050919050565b60008151905061131781610e76565b92915050565b600080fd5b600080fd5b6000601f19601f8301169050919050565b7f4e487b7100000000000000000000000000000000000000000000000000000000600052604160045260246000fd5b61137082611327565b810181811067ffffffffffffffff8211171561138f5761138e611338565b5b80604052505050565b60006113a2610e58565b90506113ae8282611367565b919050565b600067ffffffffffffffff8211156113ce576113cd611338565b5b6113d782611327565b9050602081019050919050565b60005b838110156114025780820151818401526020810190506113e7565b60008484015250505050565b600061142161141c846113b3565b611398565b90508281526020810184848401111561143d5761143c611322565b5b6114488482856113e4565b509392505050565b600082601f8301126114655761146461131d565b5b815161147584826020860161140e565b91505092915050565b6003811061148b57600080fd5b50565b60008151905061149d8161147e565b92915050565b600080600080600060a086880312156114bf576114be610e62565b5b60006114cd8882890161125a565b95505060206114de88828901611308565b945050604086015167ffffffffffffffff8111156114ff576114fe610e67565b5b61150b88828901611450565b935050606061151c8882890161148e565b925050608061152d88828901611308565b9150509295509295909350565b7f4e487b7100000000000000000000000000000000000000000000000000000000600052602160045260246000fd5b7f4e6f7420696e204c697374656420737461746500000000000000000000000000600082015250565b600061159f601383611171565b91506115aa82611569565b602082019050919050565b600060208201905081810360008301526115ce81611592565b9050919050565b7f4e6f74206c697374656400000000000000000000000000000000000000000000600082015250565b600061160b600a83611171565b9150611616826115d5565b602082019050919050565b6000602082019050818103600083015261163a816115fe565b9050919050565b7f496e73756666696369656e74207061796d656e74000000000000000000000000600082015250565b6000611677601483611171565b915061168282611641565b602082019050919050565b600060208201905081810360008301526116a68161166a565b9050919050565b60006060820190506116c26000830186610fbb565b6116cf6020830185610fbb565b6116dc6040830184610fe5565b949350505050565b7f4e487b7100000000000000000000000000000000000000000000000000000000600052603260045260246000fd5b7f4e487b7100000000000000000000000000000000000000000000000000000000600052601160045260246000fd5b600061174d82610e6c565b915061175883610e6c565b92508282039050818111156117705761176f611713565b5b92915050565b7f4e487b7100000000000000000000000000000000000000000000000000000000600052603160045260246000fdfea264697066735822122005d0eb4c263af029d6b0ebea3055e74eb680c2719e1ed513404558e31abaeabd64736f6c634300081c0033",
  "linkReferences": {},
  "deployedLinkReferences": {}
}